{
  "_format": "hh-sol-artifact-1",
  "contractName": "ZetaRaffle",
  "sourceName": "contracts/ZetaRaffle.sol",
  "abi": [
    {
      "inputs": [
        {
          "internalType": "address",
          "name": "_pythEntropyAddress",
          "type": "address"
        },
        {
          "internalType": "address",
          "name": "_zetaConnectorAddress",
          "type": "address"
        },
        {
          "internalType": "address",
          "name": "_initialOwner",
          "type": "address"
        }
      ],
      "stateMutability": "nonpayable",
      "type": "constructor"
    },
    {
      "inputs": [
        {
          "internalType": "bytes32",
          "name": "key",
          "type": "bytes32"
        }
      ],
      "name": "EnumerableMapNonexistentKey",
      "type": "error"
    },
    {
      "inputs": [
        {
          "internalType": "address",
          "name": "owner",
          "type": "address"
        }
      ],
      "name": "OwnableInvalidOwner",
      "type": "error"
    },
    {
      "inputs": [
        {
          "internalType": "address",
          "name": "account",
          "type": "address"
        }
      ],
      "name": "OwnableUnauthorizedAccount",
      "type": "error"
    },
    {
      "inputs": [],
      "name": "ReentrancyGuardReentrantCall",
      "type": "error"
    },
    {
      "anonymous": false,
      "inputs": [
        {
          "indexed": true,
          "internalType": "uint256",
          "name": "raffleId",
          "type": "uint256"
        },
        {
          "indexed": false,
          "internalType": "uint64",
          "name": "nonce",
          "type": "uint64"
        }
      ],
      "name": "EntropyRequested",
      "type": "event"
    },
    {
      "anonymous": false,
      "inputs": [
        {
          "indexed": true,
          "internalType": "address",
          "name": "previousOwner",
          "type": "address"
        },
        {
          "indexed": true,
          "internalType": "address",
          "name": "newOwner",
          "type": "address"
        }
      ],
      "name": "OwnershipTransferred",
      "type": "event"
    },
    {
      "anonymous": false,
      "inputs": [
        {
          "indexed": true,
          "internalType": "uint256",
          "name": "raffleId",
          "type": "uint256"
        },
        {
          "indexed": true,
          "internalType": "address",
          "name": "winner",
          "type": "address"
        },
        {
          "indexed": false,
          "internalType": "uint256",
          "name": "amount",
          "type": "uint256"
        }
      ],
      "name": "PrizeClaimed",
      "type": "event"
    },
    {
      "anonymous": false,
      "inputs": [
        {
          "indexed": true,
          "internalType": "uint256",
          "name": "raffleId",
          "type": "uint256"
        },
        {
          "indexed": false,
          "internalType": "string",
          "name": "name",
          "type": "string"
        },
        {
          "indexed": false,
          "internalType": "uint256",
          "name": "endTime",
          "type": "uint256"
        },
        {
          "indexed": false,
          "internalType": "uint256",
          "name": "maxParticipants",
          "type": "uint256"
        }
      ],
      "name": "RaffleCreated",
      "type": "event"
    },
    {
      "anonymous": false,
      "inputs": [
        {
          "indexed": true,
          "internalType": "uint256",
          "name": "raffleId",
          "type": "uint256"
        },
        {
          "indexed": false,
          "internalType": "enum ZetaRaffle.RaffleState",
          "name": "state",
          "type": "uint8"
        }
      ],
      "name": "RaffleStateChanged",
      "type": "event"
    },
    {
      "anonymous": false,
      "inputs": [
        {
          "indexed": true,
          "internalType": "uint256",
          "name": "raffleId",
          "type": "uint256"
        },
        {
          "indexed": true,
          "internalType": "address",
          "name": "participant",
          "type": "address"
        },
        {
          "indexed": false,
          "internalType": "uint256",
          "name": "chainId",
          "type": "uint256"
        },
        {
          "indexed": false,
          "internalType": "bytes",
          "name": "externalAddress",
          "type": "bytes"
        },
        {
          "indexed": false,
          "internalType": "uint256",
          "name": "ticketCount",
          "type": "uint256"
        },
        {
          "indexed": false,
          "internalType": "uint256",
          "name": "totalTickets",
          "type": "uint256"
        }
      ],
      "name": "TicketPurchased",
      "type": "event"
    },
    {
      "anonymous": false,
      "inputs": [
        {
          "indexed": true,
          "internalType": "uint256",
          "name": "raffleId",
          "type": "uint256"
        },
        {
          "indexed": true,
          "internalType": "address",
          "name": "winner",
          "type": "address"
        },
        {
          "indexed": false,
          "internalType": "uint256",
          "name": "winnerChainId",
          "type": "uint256"
        },
        {
          "indexed": false,
          "internalType": "bytes",
          "name": "winnerExternalAddress",
          "type": "bytes"
        },
        {
          "indexed": false,
          "internalType": "uint256",
          "name": "prizeAmount",
          "type": "uint256"
        }
      ],
      "name": "WinnerSelected",
      "type": "event"
    },
    {
      "inputs": [],
      "name": "ENTROPY_REQUEST_TIMEOUT",
      "outputs": [
        {
          "internalType": "uint256",
          "name": "",
          "type": "uint256"
        }
      ],
      "stateMutability": "view",
      "type": "function"
    },
    {
      "inputs": [],
      "name": "MIN_PARTICIPANTS",
      "outputs": [
        {
          "internalType": "uint256",
          "name": "",
          "type": "uint256"
        }
      ],
      "stateMutability": "view",
      "type": "function"
    },
    {
      "inputs": [],
      "name": "OPERATOR_FEE_PERCENTAGE",
      "outputs": [
        {
          "internalType": "uint256",
          "name": "",
          "type": "uint256"
        }
      ],
      "stateMutability": "view",
      "type": "function"
    },
    {
      "inputs": [],
      "name": "TICKET_PRICE",
      "outputs": [
        {
          "internalType": "uint256",
          "name": "",
          "type": "uint256"
        }
      ],
      "stateMutability": "view",
      "type": "function"
    },
    {
      "inputs": [
        {
          "internalType": "uint256",
          "name": "raffleId",
          "type": "uint256"
        },
        {
          "internalType": "uint256",
          "name": "ticketCount",
          "type": "uint256"
        },
        {
          "internalType": "uint256",
          "name": "preferredChainId",
          "type": "uint256"
        },
        {
          "internalType": "bytes",
          "name": "externalAddress",
          "type": "bytes"
        }
      ],
      "name": "buyTickets",
      "outputs": [],
      "stateMutability": "nonpayable",
      "type": "function"
    },
    {
      "inputs": [
        {
          "internalType": "uint256",
          "name": "",
          "type": "uint256"
        }
      ],
      "name": "chainToZRC20",
      "outputs": [
        {
          "internalType": "address",
          "name": "",
          "type": "address"
        }
      ],
      "stateMutability": "view",
      "type": "function"
    },
    {
      "inputs": [
        {
          "internalType": "uint256",
          "name": "raffleId",
          "type": "uint256"
        }
      ],
      "name": "claimPrize",
      "outputs": [],
      "stateMutability": "nonpayable",
      "type": "function"
    },
    {
      "inputs": [
        {
          "internalType": "string",
          "name": "name",
          "type": "string"
        },
        {
          "internalType": "string",
          "name": "description",
          "type": "string"
        },
        {
          "internalType": "uint256",
          "name": "durationInDays",
          "type": "uint256"
        },
        {
          "internalType": "uint256",
          "name": "maxParticipants",
          "type": "uint256"
        }
      ],
      "name": "createRaffle",
      "outputs": [],
      "stateMutability": "nonpayable",
      "type": "function"
    },
    {
      "inputs": [
        {
          "internalType": "uint256",
          "name": "raffleId",
          "type": "uint256"
        }
      ],
      "name": "drawWinner",
      "outputs": [],
      "stateMutability": "nonpayable",
      "type": "function"
    },
    {
      "inputs": [],
      "name": "getAllRaffles",
      "outputs": [
        {
          "components": [
            {
              "internalType": "uint256",
              "name": "raffleId",
              "type": "uint256"
            },
            {
              "internalType": "string",
              "name": "name",
              "type": "string"
            },
            {
              "internalType": "string",
              "name": "description",
              "type": "string"
            },
            {
              "internalType": "uint256",
              "name": "endTime",
              "type": "uint256"
            },
            {
              "internalType": "uint256",
              "name": "prizePool",
              "type": "uint256"
            },
            {
              "internalType": "enum ZetaRaffle.RaffleState",
              "name": "state",
              "type": "uint8"
            },
            {
              "internalType": "address",
              "name": "winner",
              "type": "address"
            },
            {
              "internalType": "uint256",
              "name": "winnerChainId",
              "type": "uint256"
            },
            {
              "internalType": "bytes",
              "name": "winnerExternalAddress",
              "type": "bytes"
            },
            {
              "internalType": "uint256",
              "name": "totalTickets",
              "type": "uint256"
            },
            {
              "internalType": "uint64",
              "name": "entropyNonce",
              "type": "uint64"
            },
            {
              "internalType": "uint256",
              "name": "lastEntropyRequestTime",
              "type": "uint256"
            },
            {
              "internalType": "uint256",
              "name": "maxParticipants",
              "type": "uint256"
            }
          ],
          "internalType": "struct ZetaRaffle.RaffleInfo[]",
          "name": "",
          "type": "tuple[]"
        }
      ],
      "stateMutability": "view",
      "type": "function"
    },
    {
      "inputs": [
        {
          "internalType": "uint256",
          "name": "raffleId",
          "type": "uint256"
        },
        {
          "internalType": "address",
          "name": "participant",
          "type": "address"
        }
      ],
      "name": "getParticipantInfo",
      "outputs": [
        {
          "components": [
            {
              "internalType": "address",
              "name": "zetaAddress",
              "type": "address"
            },
            {
              "internalType": "uint256",
              "name": "chainId",
              "type": "uint256"
            },
            {
              "internalType": "bytes",
              "name": "externalAddress",
              "type": "bytes"
            },
            {
              "internalType": "uint256",
              "name": "ticketCount",
              "type": "uint256"
            }
          ],
          "internalType": "struct ZetaRaffle.Participant",
          "name": "",
          "type": "tuple"
        }
      ],
      "stateMutability": "view",
      "type": "function"
    },
    {
      "inputs": [
        {
          "internalType": "uint256",
          "name": "raffleId",
          "type": "uint256"
        },
        {
          "internalType": "address",
          "name": "participant",
          "type": "address"
        }
      ],
      "name": "getTicketCount",
      "outputs": [
        {
          "internalType": "uint256",
          "name": "",
          "type": "uint256"
        }
      ],
      "stateMutability": "view",
      "type": "function"
    },
    {
      "inputs": [
        {
          "internalType": "bytes32",
          "name": "messageHash",
          "type": "bytes32"
        },
        {
          "internalType": "address",
          "name": "zrc20",
          "type": "address"
        },
        {
          "internalType": "uint256",
          "name": "amount",
          "type": "uint256"
        },
        {
          "internalType": "bytes",
          "name": "message",
          "type": "bytes"
        }
      ],
      "name": "onZetaMessage",
      "outputs": [],
      "stateMutability": "nonpayable",
      "type": "function"
    },
    {
      "inputs": [
        {
          "internalType": "bytes32",
          "name": "messageHash",
          "type": "bytes32"
        },
        {
          "internalType": "address",
          "name": "zrc20",
          "type": "address"
        },
        {
          "internalType": "uint256",
          "name": "amount",
          "type": "uint256"
        },
        {
          "internalType": "bytes",
          "name": "message",
          "type": "bytes"
        }
      ],
      "name": "onZetaRevert",
      "outputs": [],
      "stateMutability": "nonpayable",
      "type": "function"
    },
    {
      "inputs": [],
      "name": "owner",
      "outputs": [
        {
          "internalType": "address",
          "name": "",
          "type": "address"
        }
      ],
      "stateMutability": "view",
      "type": "function"
    },
    {
      "inputs": [],
      "name": "pythEntropyAddress",
      "outputs": [
        {
          "internalType": "address",
          "name": "",
          "type": "address"
        }
      ],
      "stateMutability": "view",
      "type": "function"
    },
    {
      "inputs": [
        {
          "internalType": "uint256",
          "name": "",
          "type": "uint256"
        },
        {
          "internalType": "address",
          "name": "",
          "type": "address"
        }
      ],
      "name": "raffleParticipants",
      "outputs": [
        {
          "internalType": "address",
          "name": "zetaAddress",
          "type": "address"
        },
        {
          "internalType": "uint256",
          "name": "chainId",
          "type": "uint256"
        },
        {
          "internalType": "bytes",
          "name": "externalAddress",
          "type": "bytes"
        },
        {
          "internalType": "uint256",
          "name": "ticketCount",
          "type": "uint256"
        }
      ],
      "stateMutability": "view",
      "type": "function"
    },
    {
      "inputs": [
        {
          "internalType": "uint256",
          "name": "",
          "type": "uint256"
        }
      ],
      "name": "raffles",
      "outputs": [
        {
          "internalType": "uint256",
          "name": "raffleId",
          "type": "uint256"
        },
        {
          "internalType": "string",
          "name": "name",
          "type": "string"
        },
        {
          "internalType": "string",
          "name": "description",
          "type": "string"
        },
        {
          "internalType": "uint256",
          "name": "endTime",
          "type": "uint256"
        },
        {
          "internalType": "uint256",
          "name": "prizePool",
          "type": "uint256"
        },
        {
          "internalType": "enum ZetaRaffle.RaffleState",
          "name": "state",
          "type": "uint8"
        },
        {
          "internalType": "address",
          "name": "winner",
          "type": "address"
        },
        {
          "internalType": "uint256",
          "name": "winnerChainId",
          "type": "uint256"
        },
        {
          "internalType": "bytes",
          "name": "winnerExternalAddress",
          "type": "bytes"
        },
        {
          "internalType": "uint256",
          "name": "totalTickets",
          "type": "uint256"
        },
        {
          "internalType": "uint64",
          "name": "entropyNonce",
          "type": "uint64"
        },
        {
          "internalType": "uint256",
          "name": "lastEntropyRequestTime",
          "type": "uint256"
        },
        {
          "internalType": "uint256",
          "name": "maxParticipants",
          "type": "uint256"
        }
      ],
      "stateMutability": "view",
      "type": "function"
    },
    {
      "inputs": [
        {
          "internalType": "uint256",
          "name": "",
          "type": "uint256"
        }
      ],
      "name": "randomnessRequests",
      "outputs": [
        {
          "internalType": "uint64",
          "name": "",
          "type": "uint64"
        }
      ],
      "stateMutability": "view",
      "type": "function"
    },
    {
      "inputs": [
        {
          "internalType": "address",
          "name": "user",
          "type": "address"
        },
        {
          "internalType": "uint256",
          "name": "randomNumber",
          "type": "uint256"
        }
      ],
      "name": "receivesRandomNumber",
      "outputs": [],
      "stateMutability": "nonpayable",
      "type": "function"
    },
    {
      "inputs": [
        {
          "internalType": "uint256",
          "name": "chainId",
          "type": "uint256"
        },
        {
          "internalType": "address",
          "name": "zrc20Address",
          "type": "address"
        }
      ],
      "name": "registerZRC20",
      "outputs": [],
      "stateMutability": "nonpayable",
      "type": "function"
    },
    {
      "inputs": [],
      "name": "renounceOwnership",
      "outputs": [],
      "stateMutability": "nonpayable",
      "type": "function"
    },
    {
      "inputs": [
        {
          "internalType": "address",
          "name": "newOwner",
          "type": "address"
        }
      ],
      "name": "transferOwnership",
      "outputs": [],
      "stateMutability": "nonpayable",
      "type": "function"
    },
    {
      "inputs": [],
      "name": "zetaConnectorAddress",
      "outputs": [
        {
          "internalType": "address",
          "name": "",
          "type": "address"
        }
      ],
      "stateMutability": "view",
      "type": "function"
    }
  ],
  "bytecode": "0x60806040523480156200001157600080fd5b5060405162002fdc38038062002fdc833981016040819052620000349162000114565b806001600160a01b0381166200006457604051631e4fbdf760e01b81526000600482015260240160405180910390fd5b6200006f81620000a7565b505060018055600280546001600160a01b039384166001600160a01b031991821617909155600380549290931691161790556200015e565b600080546001600160a01b038381166001600160a01b0319831681178455604051919092169283917f8be0079c531659141344cd1fd0a4f28419497f9722a3daafe3b4186f6b6457e09190a35050565b80516001600160a01b03811681146200010f57600080fd5b919050565b6000806000606084860312156200012a57600080fd5b6200013584620000f7565b92506200014560208501620000f7565b91506200015560408501620000f7565b90509250925092565b612e6e806200016e6000396000f3fe608060405234801561001057600080fd5b50600436106101585760003560e01c8063715018a6116100c3578063d70981541161007c578063d709815414610337578063dc42ba681461034a578063e4abec401461035d578063f01dbd5214610370578063f2fde38b14610378578063f43a36ea1461038b57600080fd5b8063715018a6146102cc57806382443eb6146102d45780638da5cb5b146102e7578063933eea6b146102f857806399abff4b1461030d578063d2fec8871461032d57600080fd5b80635558a283116101155780635558a283146102135780635cb6dfff146102265780635d4bc0ce1461026757806360b2a56a146102935780636919f4d1146102a65780636a14dffd146102b957600080fd5b8063145b50361461015d5780631a95f15f146101a3578063364d0b9d146101c05780633a984bc5146101d357806341e00b3b146101db578063436faa26146101fe575b600080fd5b61018661016b366004612375565b6004602052600090815260409020546001600160a01b031681565b6040516001600160a01b0390911681526020015b60405180910390f35b6101b2678ac7230489e8000081565b60405190815260200161019a565b600354610186906001600160a01b031681565b6101b2600281565b6101ee6101e93660046123a3565b61039e565b60405161019a9493929190612419565b61021161020c366004612492565b610464565b005b6102116102213660046124f2565b610917565b61024f610234366004612375565b6009602052600090815260409020546001600160401b031681565b6040516001600160401b03909116815260200161019a565b61027a610275366004612375565b610a6d565b60405161019a9d9c9b9a99989796959493929190612556565b6102116102a1366004612375565b610c82565b600254610186906001600160a01b031681565b6101b26102c73660046123a3565b610fa9565b610211610fd6565b6102116102e23660046126af565b610fea565b6000546001600160a01b0316610186565b61030061122c565b60405161019a9190612722565b61032061031b3660046123a3565b61153d565b60405161019a9190612856565b6101b26201518081565b610211610345366004612375565b611658565b6102116103583660046123a3565b611a50565b61021161036b3660046128a4565b611ad4565b6101b2600581565b6102116103863660046128f0565b611bc8565b6102116103993660046128a4565b611c06565b60076020908152600092835260408084209091529082529020805460018201546002830180546001600160a01b039093169391926103db9061290d565b80601f01602080910402602001604051908101604052809291908181526020018280546104079061290d565b80156104545780601f1061042957610100808354040283529160200191610454565b820191906000526020600020905b81548152906001019060200180831161043757829003601f168201915b5050505050908060030154905084565b84600554811061048f5760405162461bcd60e51b815260040161048690612941565b60405180910390fd5b856000808281526006602052604090206005015460ff1660028111156104b7576104b761251e565b146104d45760405162461bcd60e51b815260040161048690612970565b6104dc611ddd565b6000861161052c5760405162461bcd60e51b815260206004820152601c60248201527f4d75737420627579206174206c65617374206f6e65207469636b6574000000006044820152606401610486565b826105795760405162461bcd60e51b815260206004820152601960248201527f45787465726e616c2061646472657373207265717569726564000000000000006044820152606401610486565b6000878152600660205260409020600381015442106105d15760405162461bcd60e51b8152602060048201526014602482015273149859999b1948185b1c9958591e48195b99195960621b6044820152606401610486565b600b8101541561071a576000888152600760209081526040808320338452909152812060030154900361071a576000805b82600801548110156106c45760008a815260086020526040812081906106289084611e07565b9150915081801561065d575060008c81526007602090815260408083206001600160a01b038516845290915290206003015415155b156106af578361066c816129af565b60008e81526007602090815260408083206001600160a01b03871684529091529020600301549095506106a291506001906129c8565b6106ac90846129db565b92505b505080806106bc906129af565b915050610602565b5081600b015481106107185760405162461bcd60e51b815260206004820152601c60248201527f4d6178696d756d207061727469636970616e74732072656163686564000000006044820152606401610486565b505b6000868152600460205260409020546001600160a01b0316806107735760405162461bcd60e51b81526020600482015260116024820152702ab739bab83837b93a32b21031b430b4b760791b6044820152606401610486565b600061078789678ac7230489e800006129ee565b6040516323b872dd60e01b81523360048201523060248201526044810182905290915082906001600160a01b038216906323b872dd906064016020604051808303816000875af11580156107df573d6000803e3d6000fd5b505050506040513d601f19601f820116820180604052508101906108039190612a05565b6108475760405162461bcd60e51b8152602060048201526015602482015274151bdad95b881d1c985b9cd9995c8819985a5b1959605a1b6044820152606401610486565b6108988b338b8b8b8080601f016020809104026020016040519081016040528093929190818152602001838380828437600081840152601f19601f820116905080830192505050505050508e611e25565b818460040160008282546108ac91906129db565b92505081905550336001600160a01b03168b7f94e6ee50d21af002f2d20be2438410b24d64adf363d8a94f5756c8cacbb6b80e8b8b8b8f8a600801546040516108f9959493929190612a27565b60405180910390a35050505061090e60018055565b50505050505050565b6002546001600160a01b031633146109715760405162461bcd60e51b815260206004820152601a60248201527f4f6e6c79205079746820456e74726f70792063616e2063616c6c0000000000006044820152606401610486565b6001600160a01b03821630146109c95760405162461bcd60e51b815260206004820152601f60248201527f556e617574686f72697a65642072616e646f6d6e6573732072657175657374006044820152606401610486565b60008181805b600554811015610a0e576000818152600960205260409020546001600160401b03808516911603610a065780935060019150610a0e565b6001016109cf565b5080610a5c5760405162461bcd60e51b815260206004820152601e60248201527f4e6f20726166666c6520666f756e6420666f722074686973206e6f6e636500006044820152606401610486565b610a668385611f2e565b5050505050565b60066020526000908152604090208054600182018054919291610a8f9061290d565b80601f0160208091040260200160405190810160405280929190818152602001828054610abb9061290d565b8015610b085780601f10610add57610100808354040283529160200191610b08565b820191906000526020600020905b815481529060010190602001808311610aeb57829003601f168201915b505050505090806002018054610b1d9061290d565b80601f0160208091040260200160405190810160405280929190818152602001828054610b499061290d565b8015610b965780601f10610b6b57610100808354040283529160200191610b96565b820191906000526020600020905b815481529060010190602001808311610b7957829003601f168201915b5050505060038301546004840154600585015460068601546007870180549697949693955060ff8316946101009093046001600160a01b031693919291610bdc9061290d565b80601f0160208091040260200160405190810160405280929190818152602001828054610c089061290d565b8015610c555780601f10610c2a57610100808354040283529160200191610c55565b820191906000526020600020905b815481529060010190602001808311610c3857829003601f168201915b5050505060088301546009840154600a850154600b90950154939491936001600160401b0390911692508d565b806005548110610ca45760405162461bcd60e51b815260040161048690612941565b816000808281526006602052604090206005015460ff166002811115610ccc57610ccc61251e565b14610ce95760405162461bcd60e51b815260040161048690612970565b600081815260066020526040902060030154421015610d3d5760405162461bcd60e51b815260206004820152601060248201526f149859999b19481b9bdd08195b99195960821b6044820152606401610486565b60008181526006602052604090206008015460021115610d995760405162461bcd60e51b81526020600482015260176024820152764e6f7420656e6f756768207061727469636970616e747360481b6044820152606401610486565b610da1612124565b60008381526006602052604090206001600582015460ff166002811115610dca57610dca61251e565b03610e3f576201518081600a0154610de291906129db565b4211610e3f5760405162461bcd60e51b815260206004820152602660248201527f50726576696f757320656e74726f70792072657175657374207374696c6c2070604482015265656e64696e6760d01b6064820152608401610486565b60058101805460ff1916600190811790915560405185917f30d620e139a09aa5966cb24772df5a5612220e1e5aa3b9b6230293551fae6fb691610e829190612a6e565b60405180910390a260055460408051426020820152908101869052606081019190915260009060800160408051601f19818403018152828252805160209182012060008981526009928390529290922080546001600160401b03841667ffffffffffffffff1991821681179092559186018054909216811790915542600a860155600254631a73048b60e21b845260048401919091529092506001600160a01b03169081906369cc122c90602401600060405180830381600087803b158015610f4a57600080fd5b505af1158015610f5e573d6000803e3d6000fd5b50506040516001600160401b03851681528892507f01c8a6742988c86e1e3cf3a0830aacd862b20c5ac4af6858c41e69c4942306fa91506020015b60405180910390a2505050505050565b60008281526007602090815260408083206001600160a01b03851684529091529020600301545b92915050565b610fde612124565b610fe86000612151565b565b610ff2612124565b600082116110425760405162461bcd60e51b815260206004820152601960248201527f4475726174696f6e206d75737420626520706f736974697665000000000000006044820152606401610486565b6005805460009182611053836129af565b909155509050600061106884620151806129ee565b61107290426129db565b9050604051806101a0016040528083815260200187815260200186815260200182815260200160008152602001600060028111156110b2576110b261251e565b81526000602080830182905260408084018390528051808301825283815260608501526080840183905260a0840183905260c0840183905260e090930187905285825260068152919020825181559082015160018201906111139082612ac4565b50604082015160028201906111289082612ac4565b50606082015160038201556080820151600482015560a082015160058201805460ff191660018360028111156111605761116061251e565b021790555060c0820151600582018054610100600160a81b0319166101006001600160a01b03909316830217905560e0830151600683015582015160078201906111aa9082612ac4565b50610120820151600882015561014082015160098201805467ffffffffffffffff19166001600160401b03909216919091179055610160820151600a82015561018090910151600b9091015560405182907fa67a3ae202f19c155f33ec43781f888d5b6b6ddf7467ff4893647ece828a26b290610f9990899085908890612b83565b606060006005546001600160401b0381111561124a5761124a612604565b60405190808252806020026020018201604052801561128357816020015b6112706122ea565b8152602001906001900390816112685790505b50905060005b6005548110156115375760066000828152602001908152602001600020604051806101a0016040529081600082015481526020016001820180546112cc9061290d565b80601f01602080910402602001604051908101604052809291908181526020018280546112f89061290d565b80156113455780601f1061131a57610100808354040283529160200191611345565b820191906000526020600020905b81548152906001019060200180831161132857829003601f168201915b5050505050815260200160028201805461135e9061290d565b80601f016020809104026020016040519081016040528092919081815260200182805461138a9061290d565b80156113d75780601f106113ac576101008083540402835291602001916113d7565b820191906000526020600020905b8154815290600101906020018083116113ba57829003601f168201915b50505091835250506003820154602082015260048201546040820152600582015460609091019060ff1660028111156114125761141261251e565b60028111156114235761142361251e565b8152600582015461010090046001600160a01b031660208201526006820154604082015260078201805460609092019161145c9061290d565b80601f01602080910402602001604051908101604052809291908181526020018280546114889061290d565b80156114d55780601f106114aa576101008083540402835291602001916114d5565b820191906000526020600020905b8154815290600101906020018083116114b857829003601f168201915b50505091835250506008820154602082015260098201546001600160401b03166040820152600a8201546060820152600b90910154608090910152825183908390811061152457611524612ba8565b6020908102919091010152600101611289565b50919050565b611571604051806080016040528060006001600160a01b031681526020016000815260200160608152602001600081525090565b60008381526007602090815260408083206001600160a01b03808716855290835292819020815160808101835281549094168452600181015492840192909252600282018054918401916115c49061290d565b80601f01602080910402602001604051908101604052809291908181526020018280546115f09061290d565b801561163d5780601f106116125761010080835404028352916020019161163d565b820191906000526020600020905b81548152906001019060200180831161162057829003601f168201915b50505050508152602001600382015481525050905092915050565b80600554811061167a5760405162461bcd60e51b815260040161048690612941565b600082815260076020908152604080832033845290915290206003015482906116d95760405162461bcd60e51b8152602060048201526011602482015270139bdd0818481c185c9d1a58da5c185b9d607a1b6044820152606401610486565b6116e1611ddd565b60008381526006602052604090206002600582015460ff16600281111561170a5761170a61251e565b1461174d5760405162461bcd60e51b8152602060048201526013602482015272526166666c65206e6f7420636f6d706c65746560681b6044820152606401610486565b600581015461010090046001600160a01b0316331461179f5760405162461bcd60e51b815260206004820152600e60248201526d2737ba103a3432903bb4b73732b960911b6044820152606401610486565b60006064600583600401546117b491906129ee565b6117be9190612bd4565b905060008183600401546117d291906129c8565b600060048086018290556006860154825260205260409020549091506001600160a01b0316808063a9059cbb6118106000546001600160a01b031690565b6040516001600160e01b031960e084901b1681526001600160a01b039091166004820152602481018790526044016020604051808303816000875af115801561185d573d6000803e3d6000fd5b505050506040513d601f19601f820116820180604052508101906118819190612a05565b6118c35760405162461bcd60e51b8152602060048201526013602482015272119959481d1c985b9cd9995c8819985a5b1959606a1b6044820152606401610486565b8460070180546118d29061290d565b90506000036119a257600585015460405163a9059cbb60e01b81526101009091046001600160a01b0390811660048301526024820185905282169063a9059cbb906044016020604051808303816000875af1158015611935573d6000803e3d6000fd5b505050506040513d601f19601f820116820180604052508101906119599190612a05565b61199d5760405162461bcd60e51b8152602060048201526015602482015274141c9a5e99481d1c985b9cd9995c8819985a5b1959605a1b6044820152606401610486565b611a06565b604051636380931360e11b81526001600160a01b0382169063c7012626906119d39060078901908790600401612c65565b600060405180830381600087803b1580156119ed57600080fd5b505af1158015611a01573d6000803e3d6000fd5b505050505b604051838152339089907f4aa95f981a8337cb337de335b965507da0879c3b49f799d20058e913f5ad2c269060200160405180910390a35050505050611a4b60018055565b505050565b611a58612124565b6001600160a01b038116611aa65760405162461bcd60e51b8152602060048201526015602482015274496e76616c6964205a52433230206164647265737360581b6044820152606401610486565b60009182526004602052604090912080546001600160a01b0319166001600160a01b03909216919091179055565b6003546001600160a01b03163314611b2e5760405162461bcd60e51b815260206004820152601b60248201527f4f6e6c79205a657461436f6e6e6563746f722063616e2063616c6c00000000006044820152606401610486565b836001600160a01b031663a9059cbb611b4f6000546001600160a01b031690565b6040516001600160e01b031960e084901b1681526001600160a01b039091166004820152602481018690526044016020604051808303816000875af1158015611b9c573d6000803e3d6000fd5b505050506040513d601f19601f82011682018060405250810190611bc09190612a05565b505050505050565b611bd0612124565b6001600160a01b038116611bfa57604051631e4fbdf760e01b815260006004820152602401610486565b611c0381612151565b50565b6003546001600160a01b03163314611c605760405162461bcd60e51b815260206004820152601b60248201527f4f6e6c79205a657461436f6e6e6563746f722063616e2063616c6c00000000006044820152606401610486565b6000808080611c7185870187612c87565b93509350935093506005548410611cbe5760405162461bcd60e51b8152602060048201526011602482015270125b9d985b1a59081c9859999b19481251607a1b6044820152606401610486565b600084815260066020526040812090600582015460ff166002811115611ce657611ce661251e565b14611d035760405162461bcd60e51b815260040161048690612970565b6000611d17678ac7230489e800008a612bd4565b905060008111611d5c5760405162461bcd60e51b815260206004820152601060248201526f105b5bdd5b9d081d1bdbc81cdb585b1b60821b6044820152606401610486565b611d698686868685611e25565b88826004016000828254611d7d91906129db565b92505081905550846001600160a01b0316867f94e6ee50d21af002f2d20be2438410b24d64adf363d8a94f5756c8cacbb6b80e8686858760080154604051611dc89493929190612cfd565b60405180910390a35050505050505050505050565b600260015403611e0057604051633ee5aeb560e01b815260040160405180910390fd5b6002600155565b6000808080611e1686866121a1565b909450925050505b9250929050565b6000858152600660209081526040808320600783528184206001600160a01b038916855290925282206003810154919290919003611e985780546001600160a01b0319166001600160a01b0387161781556001810185905560028101611e8b8582612ac4565b5060038101839055611ecf565b82816003016000828254611eac91906129db565b9091555050835115611ecf576001810185905560028101611ecd8582612ac4565b505b600882015460005b84811015611f0a57611f01611eec82846129db565b60008b8152600860205260409020908a6121db565b50600101611ed7565b5083836008016000828254611f1f91906129db565b90915550505050505050505050565b60008281526006602052604090206001600582015460ff166002811115611f5757611f5761251e565b14611fa45760405162461bcd60e51b815260206004820152601b60248201527f526166666c65206e6f7420696e2064726177696e6720737461746500000000006044820152606401610486565b600281600801541015611ff35760405162461bcd60e51b81526020600482015260176024820152764e6f7420656e6f756768207061727469636970616e747360481b6044820152606401610486565b60008160080154836120059190612d29565b60008581526008602052604081209192509061202190836121f9565b60008681526007602081815260408084206001600160a01b0386168086529252909220600587018054610100600160a81b031916610100909402939093179092556001820154600687015591925090840161207f6002830182612d3d565b5060058401805460ff1916600290811790915560405187917f30d620e139a09aa5966cb24772df5a5612220e1e5aa3b9b6230293551fae6fb6916120c39190612a6e565b60405180910390a2816001600160a01b0316867f722b07aebc27cf3521177ba0e3b219e8a4700587a66e015f720ef6bb829d4692836001015484600201886004015460405161211493929190612e0f565b60405180910390a3505050505050565b6000546001600160a01b03163314610fe85760405163118cdaa760e01b8152336004820152602401610486565b600080546001600160a01b038381166001600160a01b0319831681178455604051919092169283917f8be0079c531659141344cd1fd0a4f28419497f9722a3daafe3b4186f6b6457e09190a35050565b60008181526002830160205260408120548190806121d0576121c3858561220c565b925060009150611e1e9050565b600192509050611e1e565b60006121f184846001600160a01b038516612218565b949350505050565b60006122058383612235565b9392505050565b6000612205838361227c565b600082815260028401602052604081208290556121f18484612294565b60008181526002830160205260408120548015801561225b5750612259848461220c565b155b156122055760405163015ab34360e11b815260048101849052602401610486565b60008181526001830160205260408120541515612205565b6000612205838360008181526001830160205260408120546122e257508154600181810184556000848152602080822090930184905584548482528286019093526040902091909155610fd0565b506000610fd0565b604051806101a0016040528060008152602001606081526020016060815260200160008152602001600081526020016000600281111561232c5761232c61251e565b815260200160006001600160a01b0316815260200160008152602001606081526020016000815260200160006001600160401b0316815260200160008152602001600081525090565b60006020828403121561238757600080fd5b5035919050565b6001600160a01b0381168114611c0357600080fd5b600080604083850312156123b657600080fd5b8235915060208301356123c88161238e565b809150509250929050565b6000815180845260005b818110156123f9576020818501810151868301820152016123dd565b506000602082860101526020601f19601f83011685010191505092915050565b60018060a01b038516815283602082015260806040820152600061244060808301856123d3565b905082606083015295945050505050565b60008083601f84011261246357600080fd5b5081356001600160401b0381111561247a57600080fd5b602083019150836020828501011115611e1e57600080fd5b6000806000806000608086880312156124aa57600080fd5b85359450602086013593506040860135925060608601356001600160401b038111156124d557600080fd5b6124e188828901612451565b969995985093965092949392505050565b6000806040838503121561250557600080fd5b82356125108161238e565b946020939093013593505050565b634e487b7160e01b600052602160045260246000fd5b6003811061255257634e487b7160e01b600052602160045260246000fd5b9052565b8d81526101a0602082015260006125716101a083018f6123d3565b8281036040840152612583818f6123d3565b90508c60608401528b608084015261259e60a084018c612534565b6001600160a01b038a1660c084015260e083018990528281036101008401526125c781896123d3565b915050856101208301526125e76101408301866001600160401b03169052565b61016082019390935261018001529b9a5050505050505050505050565b634e487b7160e01b600052604160045260246000fd5b60006001600160401b038084111561263457612634612604565b604051601f8501601f19908116603f0116810190828211818310171561265c5761265c612604565b8160405280935085815286868601111561267557600080fd5b858560208301376000602087830101525050509392505050565b600082601f8301126126a057600080fd5b6122058383356020850161261a565b600080600080608085870312156126c557600080fd5b84356001600160401b03808211156126dc57600080fd5b6126e88883890161268f565b955060208701359150808211156126fe57600080fd5b5061270b8782880161268f565b949794965050505060408301359260600135919050565b600060208083018184528085518083526040925060408601915060408160051b87010184880160005b8381101561284857603f1989840301855281516101a08151855288820151818a87015261277a828701826123d3565b915050878201518582038987015261279282826123d3565b9150506060808301518187015250608080830151818701525060a0808301516127bd82880182612534565b505060c0828101516001600160a01b03169086015260e0808301519086015261010080830151868303828801526127f483826123d3565b925050506101208083015181870152506101408083015161281f828801826001600160401b03169052565b50506101608281015190860152610180918201519190940152938601939086019060010161274b565b509098975050505050505050565b6020815260018060a01b03825116602082015260208201516040820152600060408301516080606084015261288e60a08401826123d3565b9050606084015160808401528091505092915050565b6000806000806000608086880312156128bc57600080fd5b8535945060208601356128ce8161238e565b93506040860135925060608601356001600160401b038111156124d557600080fd5b60006020828403121561290257600080fd5b81356122058161238e565b600181811c9082168061292157607f821691505b60208210810361153757634e487b7160e01b600052602260045260246000fd5b602080825260159082015274149859999b1948191bd95cc81b9bdd08195e1a5cdd605a1b604082015260600190565b6020808252600f908201526e2930b3333632903737ba1037b832b760891b604082015260600190565b634e487b7160e01b600052601160045260246000fd5b6000600182016129c1576129c1612999565b5060010190565b81810381811115610fd057610fd0612999565b80820180821115610fd057610fd0612999565b8082028115828204841417610fd057610fd0612999565b600060208284031215612a1757600080fd5b8151801515811461220557600080fd5b85815260806020820152836080820152838560a0830137600060a08583010152600060a0601f19601f87011683010190508360408301528260608301529695505050505050565b60208101610fd08284612534565b601f821115611a4b576000816000526020600020601f850160051c81016020861015612aa55750805b601f850160051c820191505b81811015611bc057828155600101612ab1565b81516001600160401b03811115612add57612add612604565b612af181612aeb845461290d565b84612a7c565b602080601f831160018114612b265760008415612b0e5750858301515b600019600386901b1c1916600185901b178555611bc0565b600085815260208120601f198616915b82811015612b5557888601518255948401946001909101908401612b36565b5085821015612b735787850151600019600388901b60f8161c191681555b5050505050600190811b01905550565b606081526000612b9660608301866123d3565b60208301949094525060400152919050565b634e487b7160e01b600052603260045260246000fd5b634e487b7160e01b600052601260045260246000fd5b600082612be357612be3612bbe565b500490565b60008154612bf58161290d565b808552602060018381168015612c125760018114612c2c57612c5a565b60ff1985168884015283151560051b880183019550612c5a565b866000528260002060005b85811015612c525781548a8201860152908301908401612c37565b890184019650505b505050505092915050565b604081526000612c786040830185612be8565b90508260208301529392505050565b60008060008060808587031215612c9d57600080fd5b843593506020850135612caf8161238e565b92506040850135915060608501356001600160401b03811115612cd157600080fd5b8501601f81018713612ce257600080fd5b612cf18782356020840161261a565b91505092959194509250565b848152608060208201526000612d1660808301866123d3565b6040830194909452506060015292915050565b600082612d3857612d38612bbe565b500690565b818103612d48575050565b612d52825461290d565b6001600160401b03811115612d6957612d69612604565b612d7781612aeb845461290d565b6000601f821160018114612dab5760008315612d935750848201545b600019600385901b1c1916600184901b178455610a66565b600085815260209020601f19841690600086815260209020845b83811015612de55782860154825560019586019590910190602001612dc5565b5085831015612b735793015460001960f8600387901b161c19169092555050600190811b01905550565b838152606060208201526000612e286060830185612be8565b905082604083015294935050505056fea26469706673582212207e25d036a09f75ec826ae6face078bf3fa6dd2094b897d6e0bc9788d5d4fb1c864736f6c63430008180033",
  "linkReferences": {},
  "deployedLinkReferences": {}
}