{
  "_format": "hh-sol-artifact-1",
  "contractName": "ZetaRaffle",
  "sourceName": "contracts/ZetaRaffle.sol",
  "abi": [
    {
      "inputs": [
        {
          "internalType": "address",
          "name": "_pythEntropyAddress",
          "type": "address"
        },
        {
          "internalType": "address",
          "name": "_zetaToken",
          "type": "address"
        },
        {
          "internalType": "address",
          "name": "_initialOwner",
          "type": "address"
        }
      ],
      "stateMutability": "nonpayable",
      "type": "constructor"
    },
    {
      "inputs": [
        {
          "internalType": "bytes32",
          "name": "key",
          "type": "bytes32"
        }
      ],
      "name": "EnumerableMapNonexistentKey",
      "type": "error"
    },
    {
      "inputs": [
        {
          "internalType": "address",
          "name": "owner",
          "type": "address"
        }
      ],
      "name": "OwnableInvalidOwner",
      "type": "error"
    },
    {
      "inputs": [
        {
          "internalType": "address",
          "name": "account",
          "type": "address"
        }
      ],
      "name": "OwnableUnauthorizedAccount",
      "type": "error"
    },
    {
      "inputs": [],
      "name": "ReentrancyGuardReentrantCall",
      "type": "error"
    },
    {
      "anonymous": false,
      "inputs": [
        {
          "indexed": true,
          "internalType": "uint256",
          "name": "raffleId",
          "type": "uint256"
        },
        {
          "indexed": false,
          "internalType": "uint64",
          "name": "nonce",
          "type": "uint64"
        }
      ],
      "name": "EntropyRequested",
      "type": "event"
    },
    {
      "anonymous": false,
      "inputs": [
        {
          "indexed": true,
          "internalType": "address",
          "name": "previousOwner",
          "type": "address"
        },
        {
          "indexed": true,
          "internalType": "address",
          "name": "newOwner",
          "type": "address"
        }
      ],
      "name": "OwnershipTransferred",
      "type": "event"
    },
    {
      "anonymous": false,
      "inputs": [
        {
          "indexed": true,
          "internalType": "uint256",
          "name": "raffleId",
          "type": "uint256"
        },
        {
          "indexed": true,
          "internalType": "address",
          "name": "winner",
          "type": "address"
        },
        {
          "indexed": false,
          "internalType": "uint256",
          "name": "amount",
          "type": "uint256"
        }
      ],
      "name": "PrizeClaimed",
      "type": "event"
    },
    {
      "anonymous": false,
      "inputs": [
        {
          "indexed": true,
          "internalType": "uint256",
          "name": "raffleId",
          "type": "uint256"
        },
        {
          "indexed": false,
          "internalType": "string",
          "name": "name",
          "type": "string"
        },
        {
          "indexed": false,
          "internalType": "uint256",
          "name": "endTime",
          "type": "uint256"
        },
        {
          "indexed": false,
          "internalType": "uint256",
          "name": "maxTickets",
          "type": "uint256"
        }
      ],
      "name": "RaffleCreated",
      "type": "event"
    },
    {
      "anonymous": false,
      "inputs": [
        {
          "indexed": true,
          "internalType": "uint256",
          "name": "raffleId",
          "type": "uint256"
        },
        {
          "indexed": false,
          "internalType": "enum ZetaRaffle.RaffleState",
          "name": "state",
          "type": "uint8"
        }
      ],
      "name": "RaffleStateChanged",
      "type": "event"
    },
    {
      "anonymous": false,
      "inputs": [
        {
          "indexed": true,
          "internalType": "uint256",
          "name": "raffleId",
          "type": "uint256"
        },
        {
          "indexed": true,
          "internalType": "address",
          "name": "participant",
          "type": "address"
        },
        {
          "indexed": false,
          "internalType": "uint256",
          "name": "ticketCount",
          "type": "uint256"
        },
        {
          "indexed": false,
          "internalType": "uint256",
          "name": "totalTickets",
          "type": "uint256"
        }
      ],
      "name": "TicketPurchased",
      "type": "event"
    },
    {
      "anonymous": false,
      "inputs": [
        {
          "indexed": true,
          "internalType": "uint256",
          "name": "raffleId",
          "type": "uint256"
        },
        {
          "indexed": true,
          "internalType": "address",
          "name": "winner",
          "type": "address"
        },
        {
          "indexed": false,
          "internalType": "uint256",
          "name": "prizeAmount",
          "type": "uint256"
        }
      ],
      "name": "WinnerSelected",
      "type": "event"
    },
    {
      "inputs": [],
      "name": "ENTROPY_REQUEST_TIMEOUT",
      "outputs": [
        {
          "internalType": "uint256",
          "name": "",
          "type": "uint256"
        }
      ],
      "stateMutability": "view",
      "type": "function"
    },
    {
      "inputs": [],
      "name": "MIN_PARTICIPANTS",
      "outputs": [
        {
          "internalType": "uint256",
          "name": "",
          "type": "uint256"
        }
      ],
      "stateMutability": "view",
      "type": "function"
    },
    {
      "inputs": [],
      "name": "OPERATOR_FEE_PERCENTAGE",
      "outputs": [
        {
          "internalType": "uint256",
          "name": "",
          "type": "uint256"
        }
      ],
      "stateMutability": "view",
      "type": "function"
    },
    {
      "inputs": [],
      "name": "TICKET_PRICE",
      "outputs": [
        {
          "internalType": "uint256",
          "name": "",
          "type": "uint256"
        }
      ],
      "stateMutability": "view",
      "type": "function"
    },
    {
      "inputs": [
        {
          "internalType": "uint256",
          "name": "raffleId",
          "type": "uint256"
        }
      ],
      "name": "autoDrawWinner",
      "outputs": [],
      "stateMutability": "nonpayable",
      "type": "function"
    },
    {
      "inputs": [
        {
          "internalType": "uint256",
          "name": "raffleId",
          "type": "uint256"
        },
        {
          "internalType": "uint256",
          "name": "ticketCount",
          "type": "uint256"
        }
      ],
      "name": "buyTickets",
      "outputs": [],
      "stateMutability": "payable",
      "type": "function"
    },
    {
      "inputs": [
        {
          "internalType": "uint256",
          "name": "raffleId",
          "type": "uint256"
        }
      ],
      "name": "claimPrize",
      "outputs": [],
      "stateMutability": "nonpayable",
      "type": "function"
    },
    {
      "inputs": [
        {
          "internalType": "string",
          "name": "name",
          "type": "string"
        },
        {
          "internalType": "string",
          "name": "description",
          "type": "string"
        },
        {
          "internalType": "uint256",
          "name": "durationInDays",
          "type": "uint256"
        },
        {
          "internalType": "uint256",
          "name": "maxTickets",
          "type": "uint256"
        }
      ],
      "name": "createRaffle",
      "outputs": [],
      "stateMutability": "nonpayable",
      "type": "function"
    },
    {
      "inputs": [
        {
          "internalType": "uint256",
          "name": "raffleId",
          "type": "uint256"
        }
      ],
      "name": "drawWinner",
      "outputs": [],
      "stateMutability": "nonpayable",
      "type": "function"
    },
    {
      "inputs": [],
      "name": "getAllRaffles",
      "outputs": [
        {
          "components": [
            {
              "internalType": "uint256",
              "name": "raffleId",
              "type": "uint256"
            },
            {
              "internalType": "string",
              "name": "name",
              "type": "string"
            },
            {
              "internalType": "string",
              "name": "description",
              "type": "string"
            },
            {
              "internalType": "uint256",
              "name": "endTime",
              "type": "uint256"
            },
            {
              "internalType": "uint256",
              "name": "prizePool",
              "type": "uint256"
            },
            {
              "internalType": "enum ZetaRaffle.RaffleState",
              "name": "state",
              "type": "uint8"
            },
            {
              "internalType": "address",
              "name": "winner",
              "type": "address"
            },
            {
              "internalType": "uint256",
              "name": "totalTickets",
              "type": "uint256"
            },
            {
              "internalType": "uint256",
              "name": "maxTickets",
              "type": "uint256"
            },
            {
              "internalType": "uint64",
              "name": "entropyNonce",
              "type": "uint64"
            },
            {
              "internalType": "uint256",
              "name": "lastEntropyRequestTime",
              "type": "uint256"
            }
          ],
          "internalType": "struct ZetaRaffle.RaffleInfo[]",
          "name": "",
          "type": "tuple[]"
        }
      ],
      "stateMutability": "view",
      "type": "function"
    },
    {
      "inputs": [
        {
          "internalType": "uint256",
          "name": "raffleId",
          "type": "uint256"
        },
        {
          "internalType": "address",
          "name": "participant",
          "type": "address"
        }
      ],
      "name": "getParticipantInfo",
      "outputs": [
        {
          "components": [
            {
              "internalType": "address",
              "name": "userAddress",
              "type": "address"
            },
            {
              "internalType": "uint256",
              "name": "ticketCount",
              "type": "uint256"
            }
          ],
          "internalType": "struct ZetaRaffle.Participant",
          "name": "",
          "type": "tuple"
        }
      ],
      "stateMutability": "view",
      "type": "function"
    },
    {
      "inputs": [
        {
          "internalType": "uint256",
          "name": "raffleId",
          "type": "uint256"
        },
        {
          "internalType": "address",
          "name": "participant",
          "type": "address"
        }
      ],
      "name": "getTicketCount",
      "outputs": [
        {
          "internalType": "uint256",
          "name": "",
          "type": "uint256"
        }
      ],
      "stateMutability": "view",
      "type": "function"
    },
    {
      "inputs": [],
      "name": "owner",
      "outputs": [
        {
          "internalType": "address",
          "name": "",
          "type": "address"
        }
      ],
      "stateMutability": "view",
      "type": "function"
    },
    {
      "inputs": [],
      "name": "pythEntropyAddress",
      "outputs": [
        {
          "internalType": "address",
          "name": "",
          "type": "address"
        }
      ],
      "stateMutability": "view",
      "type": "function"
    },
    {
      "inputs": [
        {
          "internalType": "uint256",
          "name": "",
          "type": "uint256"
        },
        {
          "internalType": "address",
          "name": "",
          "type": "address"
        }
      ],
      "name": "raffleParticipants",
      "outputs": [
        {
          "internalType": "address",
          "name": "userAddress",
          "type": "address"
        },
        {
          "internalType": "uint256",
          "name": "ticketCount",
          "type": "uint256"
        }
      ],
      "stateMutability": "view",
      "type": "function"
    },
    {
      "inputs": [
        {
          "internalType": "uint256",
          "name": "",
          "type": "uint256"
        }
      ],
      "name": "raffles",
      "outputs": [
        {
          "internalType": "uint256",
          "name": "raffleId",
          "type": "uint256"
        },
        {
          "internalType": "string",
          "name": "name",
          "type": "string"
        },
        {
          "internalType": "string",
          "name": "description",
          "type": "string"
        },
        {
          "internalType": "uint256",
          "name": "endTime",
          "type": "uint256"
        },
        {
          "internalType": "uint256",
          "name": "prizePool",
          "type": "uint256"
        },
        {
          "internalType": "enum ZetaRaffle.RaffleState",
          "name": "state",
          "type": "uint8"
        },
        {
          "internalType": "address",
          "name": "winner",
          "type": "address"
        },
        {
          "internalType": "uint256",
          "name": "totalTickets",
          "type": "uint256"
        },
        {
          "internalType": "uint256",
          "name": "maxTickets",
          "type": "uint256"
        },
        {
          "internalType": "uint64",
          "name": "entropyNonce",
          "type": "uint64"
        },
        {
          "internalType": "uint256",
          "name": "lastEntropyRequestTime",
          "type": "uint256"
        }
      ],
      "stateMutability": "view",
      "type": "function"
    },
    {
      "inputs": [
        {
          "internalType": "uint256",
          "name": "",
          "type": "uint256"
        }
      ],
      "name": "randomnessRequests",
      "outputs": [
        {
          "internalType": "uint64",
          "name": "",
          "type": "uint64"
        }
      ],
      "stateMutability": "view",
      "type": "function"
    },
    {
      "inputs": [
        {
          "internalType": "address",
          "name": "user",
          "type": "address"
        },
        {
          "internalType": "uint256",
          "name": "randomNumber",
          "type": "uint256"
        }
      ],
      "name": "receivesRandomNumber",
      "outputs": [],
      "stateMutability": "nonpayable",
      "type": "function"
    },
    {
      "inputs": [],
      "name": "renounceOwnership",
      "outputs": [],
      "stateMutability": "nonpayable",
      "type": "function"
    },
    {
      "inputs": [
        {
          "internalType": "address",
          "name": "newOwner",
          "type": "address"
        }
      ],
      "name": "transferOwnership",
      "outputs": [],
      "stateMutability": "nonpayable",
      "type": "function"
    },
    {
      "inputs": [
        {
          "internalType": "address",
          "name": "_pythEntropyAddress",
          "type": "address"
        }
      ],
      "name": "updatePythEntropyAddress",
      "outputs": [],
      "stateMutability": "nonpayable",
      "type": "function"
    },
    {
      "inputs": [],
      "name": "zetaToken",
      "outputs": [
        {
          "internalType": "address",
          "name": "",
          "type": "address"
        }
      ],
      "stateMutability": "view",
      "type": "function"
    },
    {
      "stateMutability": "payable",
      "type": "receive"
    }
  ],
  "bytecode": "0x60806040523480156200001157600080fd5b50604051620024fe380380620024fe833981016040819052620000349162000114565b806001600160a01b0381166200006457604051631e4fbdf760e01b81526000600482015260240160405180910390fd5b6200006f81620000a7565b505060018055600280546001600160a01b039384166001600160a01b031991821617909155600380549290931691161790556200015e565b600080546001600160a01b038381166001600160a01b0319831681178455604051919092169283917f8be0079c531659141344cd1fd0a4f28419497f9722a3daafe3b4186f6b6457e09190a35050565b80516001600160a01b03811681146200010f57600080fd5b919050565b6000806000606084860312156200012a57600080fd5b6200013584620000f7565b92506200014560208501620000f7565b91506200015560408501620000f7565b90509250925092565b612390806200016e6000396000f3fe6080604052600436106101395760003560e01c8063715018a6116100ab57806399abff4b1161006f57806399abff4b146103ba5780639bec90a21461044e578063d2fec8871461046e578063d709815414610485578063f01dbd52146104a5578063f2fde38b146104ba57600080fd5b8063715018a61461033257806382443eb6146103475780638627df46146103675780638da5cb5b1461037a578063933eea6b1461039857600080fd5b80635558a283116100fd5780635558a2831461024d5780635cb6dfff1461026d5780635d4bc0ce146102bb57806360b2a56a146101ac5780636919f4d1146102f25780636a14dffd1461031257600080fd5b80631a95f15f1461014557806321e093b1146101745780632e9b52d7146101ac5780633a984bc5146101ce57806341e00b3b146101e357600080fd5b3661014057005b600080fd5b34801561015157600080fd5b5061016167016345785d8a000081565b6040519081526020015b60405180910390f35b34801561018057600080fd5b50600354610194906001600160a01b031681565b6040516001600160a01b03909116815260200161016b565b3480156101b857600080fd5b506101cc6101c7366004611bf4565b6104da565b005b3480156101da57600080fd5b50610161600281565b3480156101ef57600080fd5b5061022e6101fe366004611c29565b6006602090815260009283526040808420909152908252902080546001909101546001600160a01b039091169082565b604080516001600160a01b03909316835260208301919091520161016b565b34801561025957600080fd5b506101cc610268366004611c55565b610651565b34801561027957600080fd5b506102a3610288366004611bf4565b6008602052600090815260409020546001600160401b031681565b6040516001600160401b03909116815260200161016b565b3480156102c757600080fd5b506102db6102d6366004611bf4565b6107a7565b60405161016b9b9a99989796959493929190611d07565b3480156102fe57600080fd5b50600254610194906001600160a01b031681565b34801561031e57600080fd5b5061016161032d366004611c29565b610927565b34801561033e57600080fd5b506101cc610954565b34801561035357600080fd5b506101cc610362366004611e48565b610968565b6101cc610375366004611ebb565b610b7b565b34801561038657600080fd5b506000546001600160a01b0316610194565b3480156103a457600080fd5b506103ad610e67565b60405161016b9190611edd565b3480156103c657600080fd5b5061042a6103d5366004611c29565b60408051808201909152600080825260208201525060009182526006602090815260408084206001600160a01b0393841685528252928390208351808501909452805490921683526001909101549082015290565b6040805182516001600160a01b03168152602092830151928101929092520161016b565b34801561045a57600080fd5b506101cc610469366004611fe0565b6110d8565b34801561047a57600080fd5b506101616201518081565b34801561049157600080fd5b506101cc6104a0366004611bf4565b61114a565b3480156104b157600080fd5b50610161600581565b3480156104c657600080fd5b506101cc6104d5366004611fe0565b61146e565b8060045481106105055760405162461bcd60e51b81526004016104fc90611ffb565b60405180910390fd5b600082815260056020526040902082906001600582015460ff16600281111561053057610530611ccf565b146105735760405162461bcd60e51b8152602060048201526013602482015272149859999b19481b9bdd08199a5b9a5cda1959606a1b60448201526064016104fc565b600081600301544210159050600080836007015411801561059b575082600701548360060154145b905081806105a65750805b6105e95760405162461bcd60e51b8152602060048201526014602482015273149859999b19481b9bdd08195b991959081e595d60621b60448201526064016104fc565b6002836006015410156106385760405162461bcd60e51b81526020600482015260176024820152764e6f7420656e6f756768207061727469636970616e747360481b60448201526064016104fc565b6106406114ac565b610649866114d9565b505050505050565b6002546001600160a01b031633146106ab5760405162461bcd60e51b815260206004820152601a60248201527f4f6e6c79205079746820456e74726f70792063616e2063616c6c00000000000060448201526064016104fc565b6001600160a01b03821630146107035760405162461bcd60e51b815260206004820152601f60248201527f556e617574686f72697a65642072616e646f6d6e65737320726571756573740060448201526064016104fc565b60008181805b600454811015610748576000818152600860205260409020546001600160401b038085169116036107405780935060019150610748565b600101610709565b50806107965760405162461bcd60e51b815260206004820152601e60248201527f4e6f20726166666c6520666f756e6420666f722074686973206e6f6e6365000060448201526064016104fc565b6107a0838561176d565b5050505050565b600560205260009081526040902080546001820180549192916107c99061202a565b80601f01602080910402602001604051908101604052809291908181526020018280546107f59061202a565b80156108425780601f1061081757610100808354040283529160200191610842565b820191906000526020600020905b81548152906001019060200180831161082557829003601f168201915b5050505050908060020180546108579061202a565b80601f01602080910402602001604051908101604052809291908181526020018280546108839061202a565b80156108d05780601f106108a5576101008083540402835291602001916108d0565b820191906000526020600020905b8154815290600101906020018083116108b357829003601f168201915b505050506003830154600484015460058501546006860154600787015460088801546009909801549697949693955060ff8316946101009093046001600160a01b031693919290916001600160401b03909116908b565b60008281526006602090815260408083206001600160a01b03851684529091529020600101545b92915050565b61095c6114ac565b6109666000611915565b565b600082116109b85760405162461bcd60e51b815260206004820152601960248201527f4475726174696f6e206d75737420626520706f7369746976650000000000000060448201526064016104fc565b60048054600091826109c983612074565b90915550905060006109de846201518061208d565b6109e890426120a4565b90506040518061016001604052808381526020018781526020018681526020018281526020016000815260200160006002811115610a2857610a28611ccf565b8152600060208083018290526040808401839052606084018890526080840183905260a09093018290528582526005815291902082518155908201516001820190610a739082612104565b5060408201516002820190610a889082612104565b50606082015160038201556080820151600482015560a082015160058201805460ff19166001836002811115610ac057610ac0611ccf565b021790555060c0820151600582018054610100600160a81b0319166101006001600160a01b03909316830217905560e08301516006830155820151600782015561012082015160088201805467ffffffffffffffff19166001600160401b039092169190911790556101409091015160099091015560405182907fa67a3ae202f19c155f33ec43781f888d5b6b6ddf7467ff4893647ece828a26b290610b6b908990859088906121c3565b60405180910390a2505050505050565b816004548110610b9d5760405162461bcd60e51b81526004016104fc90611ffb565b82600080828152600560208190526040909120015460ff166002811115610bc657610bc6611ccf565b14610c075760405162461bcd60e51b8152602060048201526011602482015270526166666c65206e6f742061637469766560781b60448201526064016104fc565b610c0f611965565b60008311610c5f5760405162461bcd60e51b815260206004820152601c60248201527f4d75737420627579206174206c65617374206f6e65207469636b65740000000060448201526064016104fc565b600084815260056020526040902060038101544210610cb75760405162461bcd60e51b8152602060048201526014602482015273149859999b1948185b1c9958591e48195b99195960621b60448201526064016104fc565b600781015415610d8a578060070154848260060154610cd691906120a4565b1115610d245760405162461bcd60e51b815260206004820152601c60248201527f4e6f7420656e6f756768207469636b65747320617661696c61626c650000000060448201526064016104fc565b8060070154848260060154610d3991906120a4565b03610d8a5760058101805460ff1916600190811790915560405186917f30d620e139a09aa5966cb24772df5a5612220e1e5aa3b9b6230293551fae6fb691610d8191906121e8565b60405180910390a25b6000610d9e8567016345785d8a000061208d565b9050803414610def5760405162461bcd60e51b815260206004820152601a60248201527f496e636f7272656374205a45544120616d6f756e742073656e7400000000000060448201526064016104fc565b610dfa86338761198f565b80826004016000828254610e0e91906120a4565b90915550506006820154604080518781526020810192909252339188917fef266bb11bf4b58aa8562ab8c8746e3b84a521780a2c57ca09d87bae13f5eb09910160405180910390a35050610e6160018055565b50505050565b606060006004546001600160401b03811115610e8557610e85611d93565b604051908082528060200260200182016040528015610ebe57816020015b610eab611b77565b815260200190600190039081610ea35790505b50905060005b6004548110156110d257600560008281526020019081526020016000206040518061016001604052908160008201548152602001600182018054610f079061202a565b80601f0160208091040260200160405190810160405280929190818152602001828054610f339061202a565b8015610f805780601f10610f5557610100808354040283529160200191610f80565b820191906000526020600020905b815481529060010190602001808311610f6357829003601f168201915b50505050508152602001600282018054610f999061202a565b80601f0160208091040260200160405190810160405280929190818152602001828054610fc59061202a565b80156110125780601f10610fe757610100808354040283529160200191611012565b820191906000526020600020905b815481529060010190602001808311610ff557829003601f168201915b50505091835250506003820154602082015260048201546040820152600582015460609091019060ff16600281111561104d5761104d611ccf565b600281111561105e5761105e611ccf565b8152600582015461010090046001600160a01b03166020820152600682015460408201526007820154606082015260088201546001600160401b0316608082015260099091015460a09091015282518390839081106110bf576110bf6121f6565b6020908102919091010152600101610ec4565b50919050565b6110e06114ac565b6001600160a01b0381166111285760405162461bcd60e51b815260206004820152600f60248201526e496e76616c6964206164647265737360881b60448201526064016104fc565b600280546001600160a01b0319166001600160a01b0392909216919091179055565b80600454811061116c5760405162461bcd60e51b81526004016104fc90611ffb565b6111746114ac565b61117c611965565b60008281526005602052604090206002600582015460ff1660028111156111a5576111a5611ccf565b146111e95760405162461bcd60e51b8152602060048201526014602482015273149859999b19481b9bdd0818dbdb5c1b195d195960621b60448201526064016104fc565b600581015461010090046001600160a01b031661123d5760405162461bcd60e51b8152602060048201526012602482015271139bc81dda5b9b995c881cd95b1958dd195960721b60448201526064016104fc565b60008160040154116112895760405162461bcd60e51b8152602060048201526015602482015274141c9a5e9948185b1c9958591e4818db185a5b5959605a1b60448201526064016104fc565b600060646005836004015461129e919061208d565b6112a89190612222565b905060008183600401546112bc9190612236565b6000600485018190559091506112da6000546001600160a01b031690565b6001600160a01b03168360405160006040518083038185875af1925050503d8060008114611324576040519150601f19603f3d011682016040523d82523d6000602084013e611329565b606091505b50509050806113705760405162461bcd60e51b8152602060048201526013602482015272119959481d1c985b9cd9995c8819985a5b1959606a1b60448201526064016104fc565b600584015460405160009161010090046001600160a01b03169084908381818185875af1925050503d80600081146113c4576040519150601f19603f3d011682016040523d82523d6000602084013e6113c9565b606091505b50509050806114125760405162461bcd60e51b8152602060048201526015602482015274141c9a5e99481d1c985b9cd9995c8819985a5b1959605a1b60448201526064016104fc565b60058501546040518481526101009091046001600160a01b03169088907f4aa95f981a8337cb337de335b965507da0879c3b49f799d20058e913f5ad2c269060200160405180910390a3505050505061146a60018055565b5050565b6114766114ac565b6001600160a01b0381166114a057604051631e4fbdf760e01b8152600060048201526024016104fc565b6114a981611915565b50565b6000546001600160a01b031633146109665760405163118cdaa760e01b81523360048201526024016104fc565b60008181526005602052604090206009810154156115615762015180816009015461150491906120a4565b42116115615760405162461bcd60e51b815260206004820152602660248201527f50726576696f757320656e74726f70792072657175657374207374696c6c2070604482015265656e64696e6760d01b60648201526084016104fc565b60045460408051426020820152908101849052606081019190915260009060800160408051601f19818403018152828252805160209182012060008781526008928390529290922080546001600160401b03841667ffffffffffffffff19918216811790925591860180549092168117909155426009860155600254631a73048b60e21b845260048401919091529092506001600160a01b03169081906369cc122c90602401600060405180830381600087803b15801561162157600080fd5b505af1925050508015611632575060015b6117295761163e612249565b806308c379a0036116945750611652612265565b8061165d5750611696565b8060405160200161166e91906122ee565b60408051601f198184030181529082905262461bcd60e51b82526104fc91600401612333565b505b3d8080156116c0576040519150601f19603f3d011682016040523d82523d6000602084013e6116c5565b606091505b5060006116d3600143612236565b6006860154604080519240602084015242908301524460608301526080820188905260a082015260c0016040516020818303038152906040528051906020012060001c9050611722868261176d565b5050610e61565b6040516001600160401b038316815284907f01c8a6742988c86e1e3cf3a0830aacd862b20c5ac4af6858c41e69c4942306fa9060200160405180910390a250505050565b60008281526005602052604090206001600582015460ff16600281111561179657611796611ccf565b146117e35760405162461bcd60e51b815260206004820152601c60248201527f526166666c65206e6f7420696e2066696e69736865642073746174650000000060448201526064016104fc565b6002816006015410156118325760405162461bcd60e51b81526020600482015260176024820152764e6f7420656e6f756768207061727469636970616e747360481b60448201526064016104fc565b60008160060154836118449190612346565b6000858152600760205260408120919250906118609083611a63565b6005840180546001600160a81b03191660ff196101006001600160a01b038516021617600290811790915560405191925086917f30d620e139a09aa5966cb24772df5a5612220e1e5aa3b9b6230293551fae6fb6916118be916121e8565b60405180910390a2806001600160a01b0316857ffee5b04775e1cd2311ed22cd00f5d2403aff38ff6f71d6d393f51854ed6bc986856004015460405161190691815260200190565b60405180910390a35050505050565b600080546001600160a01b038381166001600160a01b0319831681178455604051919092169283917f8be0079c531659141344cd1fd0a4f28419497f9722a3daafe3b4186f6b6457e09190a35050565b60026001540361198857604051633ee5aeb560e01b815260040160405180910390fd5b6002600155565b6000838152600560209081526040808320600683528184206001600160a01b0387168552909252822060018101549192909190036119ec5780546001600160a01b0319166001600160a01b03851617815560018101839055611a06565b82816001016000828254611a0091906120a4565b90915550505b600682015460005b84811015611a4157611a38611a2382846120a4565b60008981526007602052604090209088611a76565b50600101611a0e565b5083836006016000828254611a5691906120a4565b9091555050505050505050565b6000611a6f8383611a94565b9392505050565b6000611a8c84846001600160a01b038516611adb565b949350505050565b600081815260028301602052604081205480158015611aba5750611ab88484611af8565b155b15611a6f5760405163015ab34360e11b8152600481018490526024016104fc565b60008281526002840160205260408120829055611a8c8484611b04565b6000611a6f8383611b10565b6000611a6f8383611b28565b60008181526001830160205260408120541515611a6f565b6000818152600183016020526040812054611b6f5750815460018181018455600084815260208082209093018490558454848252828601909352604090209190915561094e565b50600061094e565b604051806101600160405280600081526020016060815260200160608152602001600081526020016000815260200160006002811115611bb957611bb9611ccf565b815260200160006001600160a01b03168152602001600081526020016000815260200160006001600160401b03168152602001600081525090565b600060208284031215611c0657600080fd5b5035919050565b80356001600160a01b0381168114611c2457600080fd5b919050565b60008060408385031215611c3c57600080fd5b82359150611c4c60208401611c0d565b90509250929050565b60008060408385031215611c6857600080fd5b611c7183611c0d565b946020939093013593505050565b60005b83811015611c9a578181015183820152602001611c82565b50506000910152565b60008151808452611cbb816020860160208601611c7f565b601f01601f19169290920160200192915050565b634e487b7160e01b600052602160045260246000fd5b60038110611d0357634e487b7160e01b600052602160045260246000fd5b9052565b60006101608d8352806020840152611d218184018e611ca3565b90508281036040840152611d35818d611ca3565b915050896060830152886080830152611d5160a0830189611ce5565b6001600160a01b039690961660c082015260e08101949094526101008401929092526001600160401b0316610120830152610140909101529695505050505050565b634e487b7160e01b600052604160045260246000fd5b601f8201601f191681016001600160401b0381118282101715611dce57611dce611d93565b6040525050565b600082601f830112611de657600080fd5b81356001600160401b03811115611dff57611dff611d93565b604051611e16601f8301601f191660200182611da9565b818152846020838601011115611e2b57600080fd5b816020850160208301376000918101602001919091529392505050565b60008060008060808587031215611e5e57600080fd5b84356001600160401b0380821115611e7557600080fd5b611e8188838901611dd5565b95506020870135915080821115611e9757600080fd5b50611ea487828801611dd5565b949794965050505060408301359260600135919050565b60008060408385031215611ece57600080fd5b50508035926020909101359150565b600060208083018184528085518083526040925060408601915060408160051b87010184880160005b83811015611fd257603f1989840301855281516101608151855288820151818a870152611f3582870182611ca3565b9150508782015185820389870152611f4d8282611ca3565b9150506060808301518187015250608080830151818701525060a080830151611f7882880182611ce5565b505060c0828101516001600160a01b03169086015260e080830151908601526101008083015190860152610120808301516001600160401b0316908601526101409182015191909401529386019390860190600101611f06565b509098975050505050505050565b600060208284031215611ff257600080fd5b611a6f82611c0d565b602080825260159082015274149859999b1948191bd95cc81b9bdd08195e1a5cdd605a1b604082015260600190565b600181811c9082168061203e57607f821691505b6020821081036110d257634e487b7160e01b600052602260045260246000fd5b634e487b7160e01b600052601160045260246000fd5b6000600182016120865761208661205e565b5060010190565b808202811582820484141761094e5761094e61205e565b8082018082111561094e5761094e61205e565b601f8211156120ff576000816000526020600020601f850160051c810160208610156120e05750805b601f850160051c820191505b81811015610649578281556001016120ec565b505050565b81516001600160401b0381111561211d5761211d611d93565b6121318161212b845461202a565b846120b7565b602080601f831160018114612166576000841561214e5750858301515b600019600386901b1c1916600185901b178555610649565b600085815260208120601f198616915b8281101561219557888601518255948401946001909101908401612176565b50858210156121b35787850151600019600388901b60f8161c191681555b5050505050600190811b01905550565b6060815260006121d66060830186611ca3565b60208301949094525060400152919050565b6020810161094e8284611ce5565b634e487b7160e01b600052603260045260246000fd5b634e487b7160e01b600052601260045260246000fd5b6000826122315761223161220c565b500490565b8181038181111561094e5761094e61205e565b600060033d11156122625760046000803e5060005160e01c5b90565b600060443d10156122735790565b6040516003193d81016004833e81513d6001600160401b0381602484011181841117156122a257505050505090565b82850191508151818111156122ba5750505050505090565b843d87010160208285010111156122d45750505050505090565b6122e360208286010187611da9565b509095945050505050565b7f456e74726f70792072657175657374206661696c65643a200000000000000000815260008251612326816018850160208701611c7f565b9190910160180192915050565b602081526000611a6f6020830184611ca3565b6000826123555761235561220c565b50069056fea26469706673582212209b8c491bce96fe5f779503562d0185a8ccb7993d97ce11cd0cc928eb9a6f286864736f6c63430008180033",
  "linkReferences": {},
  "deployedLinkReferences": {}
}