{
  "_format": "hh-sol-artifact-1",
  "contractName": "ZetaRaffle",
  "sourceName": "contracts/ZetaRaffle.sol",
  "abi": [
    {
      "inputs": [
        {
          "internalType": "address",
          "name": "_pythEntropyAddress",
          "type": "address"
        },
        {
          "internalType": "address",
          "name": "_zetaToken",
          "type": "address"
        },
        {
          "internalType": "address",
          "name": "_initialOwner",
          "type": "address"
        }
      ],
      "stateMutability": "nonpayable",
      "type": "constructor"
    },
    {
      "inputs": [
        {
          "internalType": "bytes32",
          "name": "key",
          "type": "bytes32"
        }
      ],
      "name": "EnumerableMapNonexistentKey",
      "type": "error"
    },
    {
      "inputs": [
        {
          "internalType": "address",
          "name": "owner",
          "type": "address"
        }
      ],
      "name": "OwnableInvalidOwner",
      "type": "error"
    },
    {
      "inputs": [
        {
          "internalType": "address",
          "name": "account",
          "type": "address"
        }
      ],
      "name": "OwnableUnauthorizedAccount",
      "type": "error"
    },
    {
      "inputs": [],
      "name": "ReentrancyGuardReentrantCall",
      "type": "error"
    },
    {
      "anonymous": false,
      "inputs": [
        {
          "indexed": true,
          "internalType": "uint256",
          "name": "raffleId",
          "type": "uint256"
        },
        {
          "indexed": false,
          "internalType": "uint64",
          "name": "nonce",
          "type": "uint64"
        }
      ],
      "name": "EntropyRequested",
      "type": "event"
    },
    {
      "anonymous": false,
      "inputs": [
        {
          "indexed": true,
          "internalType": "address",
          "name": "previousOwner",
          "type": "address"
        },
        {
          "indexed": true,
          "internalType": "address",
          "name": "newOwner",
          "type": "address"
        }
      ],
      "name": "OwnershipTransferred",
      "type": "event"
    },
    {
      "anonymous": false,
      "inputs": [
        {
          "indexed": true,
          "internalType": "uint256",
          "name": "raffleId",
          "type": "uint256"
        },
        {
          "indexed": true,
          "internalType": "address",
          "name": "winner",
          "type": "address"
        },
        {
          "indexed": false,
          "internalType": "uint256",
          "name": "amount",
          "type": "uint256"
        }
      ],
      "name": "PrizeClaimed",
      "type": "event"
    },
    {
      "anonymous": false,
      "inputs": [
        {
          "indexed": true,
          "internalType": "uint256",
          "name": "raffleId",
          "type": "uint256"
        },
        {
          "indexed": false,
          "internalType": "string",
          "name": "name",
          "type": "string"
        },
        {
          "indexed": false,
          "internalType": "uint256",
          "name": "endTime",
          "type": "uint256"
        },
        {
          "indexed": false,
          "internalType": "uint256",
          "name": "maxTickets",
          "type": "uint256"
        }
      ],
      "name": "RaffleCreated",
      "type": "event"
    },
    {
      "anonymous": false,
      "inputs": [
        {
          "indexed": true,
          "internalType": "uint256",
          "name": "raffleId",
          "type": "uint256"
        },
        {
          "indexed": false,
          "internalType": "enum ZetaRaffle.RaffleState",
          "name": "state",
          "type": "uint8"
        }
      ],
      "name": "RaffleStateChanged",
      "type": "event"
    },
    {
      "anonymous": false,
      "inputs": [
        {
          "indexed": true,
          "internalType": "uint256",
          "name": "raffleId",
          "type": "uint256"
        },
        {
          "indexed": true,
          "internalType": "address",
          "name": "participant",
          "type": "address"
        },
        {
          "indexed": false,
          "internalType": "uint256",
          "name": "ticketCount",
          "type": "uint256"
        },
        {
          "indexed": false,
          "internalType": "uint256",
          "name": "totalTickets",
          "type": "uint256"
        }
      ],
      "name": "TicketPurchased",
      "type": "event"
    },
    {
      "anonymous": false,
      "inputs": [
        {
          "indexed": true,
          "internalType": "uint256",
          "name": "raffleId",
          "type": "uint256"
        },
        {
          "indexed": true,
          "internalType": "address",
          "name": "winner",
          "type": "address"
        },
        {
          "indexed": false,
          "internalType": "uint256",
          "name": "prizeAmount",
          "type": "uint256"
        }
      ],
      "name": "WinnerSelected",
      "type": "event"
    },
    {
      "inputs": [],
      "name": "ENTROPY_REQUEST_TIMEOUT",
      "outputs": [
        {
          "internalType": "uint256",
          "name": "",
          "type": "uint256"
        }
      ],
      "stateMutability": "view",
      "type": "function"
    },
    {
      "inputs": [],
      "name": "MIN_PARTICIPANTS",
      "outputs": [
        {
          "internalType": "uint256",
          "name": "",
          "type": "uint256"
        }
      ],
      "stateMutability": "view",
      "type": "function"
    },
    {
      "inputs": [],
      "name": "OPERATOR_FEE_PERCENTAGE",
      "outputs": [
        {
          "internalType": "uint256",
          "name": "",
          "type": "uint256"
        }
      ],
      "stateMutability": "view",
      "type": "function"
    },
    {
      "inputs": [],
      "name": "TICKET_PRICE",
      "outputs": [
        {
          "internalType": "uint256",
          "name": "",
          "type": "uint256"
        }
      ],
      "stateMutability": "view",
      "type": "function"
    },
    {
      "inputs": [
        {
          "internalType": "uint256",
          "name": "raffleId",
          "type": "uint256"
        },
        {
          "internalType": "uint256",
          "name": "ticketCount",
          "type": "uint256"
        }
      ],
      "name": "buyTickets",
      "outputs": [],
      "stateMutability": "payable",
      "type": "function"
    },
    {
      "inputs": [
        {
          "internalType": "uint256",
          "name": "raffleId",
          "type": "uint256"
        }
      ],
      "name": "claimPrize",
      "outputs": [],
      "stateMutability": "nonpayable",
      "type": "function"
    },
    {
      "inputs": [
        {
          "internalType": "string",
          "name": "name",
          "type": "string"
        },
        {
          "internalType": "string",
          "name": "description",
          "type": "string"
        },
        {
          "internalType": "uint256",
          "name": "durationInDays",
          "type": "uint256"
        },
        {
          "internalType": "uint256",
          "name": "maxTickets",
          "type": "uint256"
        }
      ],
      "name": "createRaffle",
      "outputs": [],
      "stateMutability": "nonpayable",
      "type": "function"
    },
    {
      "inputs": [
        {
          "internalType": "uint256",
          "name": "raffleId",
          "type": "uint256"
        }
      ],
      "name": "drawWinner",
      "outputs": [],
      "stateMutability": "nonpayable",
      "type": "function"
    },
    {
      "inputs": [],
      "name": "getAllRaffles",
      "outputs": [
        {
          "components": [
            {
              "internalType": "uint256",
              "name": "raffleId",
              "type": "uint256"
            },
            {
              "internalType": "string",
              "name": "name",
              "type": "string"
            },
            {
              "internalType": "string",
              "name": "description",
              "type": "string"
            },
            {
              "internalType": "uint256",
              "name": "endTime",
              "type": "uint256"
            },
            {
              "internalType": "uint256",
              "name": "prizePool",
              "type": "uint256"
            },
            {
              "internalType": "enum ZetaRaffle.RaffleState",
              "name": "state",
              "type": "uint8"
            },
            {
              "internalType": "address",
              "name": "winner",
              "type": "address"
            },
            {
              "internalType": "uint256",
              "name": "totalTickets",
              "type": "uint256"
            },
            {
              "internalType": "uint256",
              "name": "maxTickets",
              "type": "uint256"
            },
            {
              "internalType": "uint64",
              "name": "entropyNonce",
              "type": "uint64"
            },
            {
              "internalType": "uint256",
              "name": "lastEntropyRequestTime",
              "type": "uint256"
            }
          ],
          "internalType": "struct ZetaRaffle.RaffleInfo[]",
          "name": "",
          "type": "tuple[]"
        }
      ],
      "stateMutability": "view",
      "type": "function"
    },
    {
      "inputs": [
        {
          "internalType": "uint256",
          "name": "raffleId",
          "type": "uint256"
        },
        {
          "internalType": "address",
          "name": "participant",
          "type": "address"
        }
      ],
      "name": "getParticipantInfo",
      "outputs": [
        {
          "components": [
            {
              "internalType": "address",
              "name": "userAddress",
              "type": "address"
            },
            {
              "internalType": "uint256",
              "name": "ticketCount",
              "type": "uint256"
            }
          ],
          "internalType": "struct ZetaRaffle.Participant",
          "name": "",
          "type": "tuple"
        }
      ],
      "stateMutability": "view",
      "type": "function"
    },
    {
      "inputs": [
        {
          "internalType": "uint256",
          "name": "raffleId",
          "type": "uint256"
        },
        {
          "internalType": "address",
          "name": "participant",
          "type": "address"
        }
      ],
      "name": "getTicketCount",
      "outputs": [
        {
          "internalType": "uint256",
          "name": "",
          "type": "uint256"
        }
      ],
      "stateMutability": "view",
      "type": "function"
    },
    {
      "inputs": [],
      "name": "owner",
      "outputs": [
        {
          "internalType": "address",
          "name": "",
          "type": "address"
        }
      ],
      "stateMutability": "view",
      "type": "function"
    },
    {
      "inputs": [],
      "name": "pythEntropyAddress",
      "outputs": [
        {
          "internalType": "address",
          "name": "",
          "type": "address"
        }
      ],
      "stateMutability": "view",
      "type": "function"
    },
    {
      "inputs": [
        {
          "internalType": "uint256",
          "name": "",
          "type": "uint256"
        },
        {
          "internalType": "address",
          "name": "",
          "type": "address"
        }
      ],
      "name": "raffleParticipants",
      "outputs": [
        {
          "internalType": "address",
          "name": "userAddress",
          "type": "address"
        },
        {
          "internalType": "uint256",
          "name": "ticketCount",
          "type": "uint256"
        }
      ],
      "stateMutability": "view",
      "type": "function"
    },
    {
      "inputs": [
        {
          "internalType": "uint256",
          "name": "",
          "type": "uint256"
        }
      ],
      "name": "raffles",
      "outputs": [
        {
          "internalType": "uint256",
          "name": "raffleId",
          "type": "uint256"
        },
        {
          "internalType": "string",
          "name": "name",
          "type": "string"
        },
        {
          "internalType": "string",
          "name": "description",
          "type": "string"
        },
        {
          "internalType": "uint256",
          "name": "endTime",
          "type": "uint256"
        },
        {
          "internalType": "uint256",
          "name": "prizePool",
          "type": "uint256"
        },
        {
          "internalType": "enum ZetaRaffle.RaffleState",
          "name": "state",
          "type": "uint8"
        },
        {
          "internalType": "address",
          "name": "winner",
          "type": "address"
        },
        {
          "internalType": "uint256",
          "name": "totalTickets",
          "type": "uint256"
        },
        {
          "internalType": "uint256",
          "name": "maxTickets",
          "type": "uint256"
        },
        {
          "internalType": "uint64",
          "name": "entropyNonce",
          "type": "uint64"
        },
        {
          "internalType": "uint256",
          "name": "lastEntropyRequestTime",
          "type": "uint256"
        }
      ],
      "stateMutability": "view",
      "type": "function"
    },
    {
      "inputs": [
        {
          "internalType": "uint256",
          "name": "",
          "type": "uint256"
        }
      ],
      "name": "randomnessRequests",
      "outputs": [
        {
          "internalType": "uint64",
          "name": "",
          "type": "uint64"
        }
      ],
      "stateMutability": "view",
      "type": "function"
    },
    {
      "inputs": [
        {
          "internalType": "address",
          "name": "user",
          "type": "address"
        },
        {
          "internalType": "uint256",
          "name": "randomNumber",
          "type": "uint256"
        }
      ],
      "name": "receivesRandomNumber",
      "outputs": [],
      "stateMutability": "nonpayable",
      "type": "function"
    },
    {
      "inputs": [],
      "name": "renounceOwnership",
      "outputs": [],
      "stateMutability": "nonpayable",
      "type": "function"
    },
    {
      "inputs": [
        {
          "internalType": "address",
          "name": "newOwner",
          "type": "address"
        }
      ],
      "name": "transferOwnership",
      "outputs": [],
      "stateMutability": "nonpayable",
      "type": "function"
    },
    {
      "inputs": [
        {
          "internalType": "address",
          "name": "_pythEntropyAddress",
          "type": "address"
        }
      ],
      "name": "updatePythEntropyAddress",
      "outputs": [],
      "stateMutability": "nonpayable",
      "type": "function"
    },
    {
      "inputs": [],
      "name": "zetaToken",
      "outputs": [
        {
          "internalType": "address",
          "name": "",
          "type": "address"
        }
      ],
      "stateMutability": "view",
      "type": "function"
    },
    {
      "stateMutability": "payable",
      "type": "receive"
    }
  ],
  "bytecode": "0x60806040523480156200001157600080fd5b50604051620022c1380380620022c1833981016040819052620000349162000114565b806001600160a01b0381166200006457604051631e4fbdf760e01b81526000600482015260240160405180910390fd5b6200006f81620000a7565b505060018055600280546001600160a01b039384166001600160a01b031991821617909155600380549290931691161790556200015e565b600080546001600160a01b038381166001600160a01b0319831681178455604051919092169283917f8be0079c531659141344cd1fd0a4f28419497f9722a3daafe3b4186f6b6457e09190a35050565b80516001600160a01b03811681146200010f57600080fd5b919050565b6000806000606084860312156200012a57600080fd5b6200013584620000f7565b92506200014560208501620000f7565b91506200015560408501620000f7565b90509250925092565b612153806200016e6000396000f3fe60806040526004361061012e5760003560e01c8063715018a6116100ab57806399abff4b1161006f57806399abff4b146103af5780639bec90a214610443578063d2fec88714610463578063d70981541461047a578063f01dbd521461049a578063f2fde38b146104af57600080fd5b8063715018a61461032757806382443eb61461033c5780638627df461461035c5780638da5cb5b1461036f578063933eea6b1461038d57600080fd5b80635cb6dfff116100f25780635cb6dfff146102425780635d4bc0ce1461029057806360b2a56a146102c75780636919f4d1146102e75780636a14dffd1461030757600080fd5b80631a95f15f1461013a57806321e093b1146101695780633a984bc5146101a157806341e00b3b146101b65780635558a2831461022057600080fd5b3661013557005b600080fd5b34801561014657600080fd5b5061015667016345785d8a000081565b6040519081526020015b60405180910390f35b34801561017557600080fd5b50600354610189906001600160a01b031681565b6040516001600160a01b039091168152602001610160565b3480156101ad57600080fd5b50610156600281565b3480156101c257600080fd5b506102016101d1366004611ae9565b6006602090815260009283526040808420909152908252902080546001909101546001600160a01b039091169082565b604080516001600160a01b039093168352602083019190915201610160565b34801561022c57600080fd5b5061024061023b366004611b15565b6104cf565b005b34801561024e57600080fd5b5061027861025d366004611b3f565b6008602052600090815260409020546001600160401b031681565b6040516001600160401b039091168152602001610160565b34801561029c57600080fd5b506102b06102ab366004611b3f565b61062a565b6040516101609b9a99989796959493929190611bd6565b3480156102d357600080fd5b506102406102e2366004611b3f565b6107aa565b3480156102f357600080fd5b50600254610189906001600160a01b031681565b34801561031357600080fd5b50610156610322366004611ae9565b610a9c565b34801561033357600080fd5b50610240610ac9565b34801561034857600080fd5b50610240610357366004611d04565b610add565b61024061036a366004611d77565b610ce8565b34801561037b57600080fd5b506000546001600160a01b0316610189565b34801561039957600080fd5b506103a2610fd4565b6040516101609190611d99565b3480156103bb57600080fd5b5061041f6103ca366004611ae9565b60408051808201909152600080825260208201525060009182526006602090815260408084206001600160a01b0393841685528252928390208351808501909452805490921683526001909101549082015290565b6040805182516001600160a01b031681526020928301519281019290925201610160565b34801561044f57600080fd5b5061024061045e366004611e9c565b611245565b34801561046f57600080fd5b506101566201518081565b34801561048657600080fd5b50610240610495366004611b3f565b6112b7565b3480156104a657600080fd5b50610156600581565b3480156104bb57600080fd5b506102406104ca366004611e9c565b6115db565b6002546001600160a01b0316331461052e5760405162461bcd60e51b815260206004820152601a60248201527f4f6e6c79205079746820456e74726f70792063616e2063616c6c00000000000060448201526064015b60405180910390fd5b6001600160a01b03821630146105865760405162461bcd60e51b815260206004820152601f60248201527f556e617574686f72697a65642072616e646f6d6e6573732072657175657374006044820152606401610525565b60008181805b6004548110156105cb576000818152600860205260409020546001600160401b038085169116036105c357809350600191506105cb565b60010161058c565b50806106195760405162461bcd60e51b815260206004820152601e60248201527f4e6f20726166666c6520666f756e6420666f722074686973206e6f6e636500006044820152606401610525565b6106238385611619565b5050505050565b6005602052600090815260409020805460018201805491929161064c90611eb7565b80601f016020809104026020016040519081016040528092919081815260200182805461067890611eb7565b80156106c55780601f1061069a576101008083540402835291602001916106c5565b820191906000526020600020905b8154815290600101906020018083116106a857829003601f168201915b5050505050908060020180546106da90611eb7565b80601f016020809104026020016040519081016040528092919081815260200182805461070690611eb7565b80156107535780601f1061072857610100808354040283529160200191610753565b820191906000526020600020905b81548152906001019060200180831161073657829003601f168201915b505050506003830154600484015460058501546006860154600787015460088801546009909801549697949693955060ff8316946101009093046001600160a01b031693919290916001600160401b03909116908b565b8060045481106107cc5760405162461bcd60e51b815260040161052590611eeb565b8160016000828152600560208190526040909120015460ff1660028111156107f6576107f6611b9e565b146108395760405162461bcd60e51b8152602060048201526013602482015272149859999b19481b9bdd08199a5b9a5cda1959606a1b6044820152606401610525565b6000818152600560205260409020600301544210156108915760405162461bcd60e51b8152602060048201526014602482015273149859999b19481b9bdd08195b991959081e595d60621b6044820152606401610525565b600081815260056020526040902060060154600211156108ed5760405162461bcd60e51b81526020600482015260176024820152764e6f7420656e6f756768207061727469636970616e747360481b6044820152606401610525565b6108f56117c1565b600083815260056020526040902060098101541561097d576201518081600901546109209190611f30565b421161097d5760405162461bcd60e51b815260206004820152602660248201527f50726576696f757320656e74726f70792072657175657374207374696c6c2070604482015265656e64696e6760d01b6064820152608401610525565b60045460408051426020820152908101869052606081019190915260009060800160408051601f19818403018152828252805160209182012060008981526008928390529290922080546001600160401b03841667ffffffffffffffff19918216811790925591860180549092168117909155426009860155600254631a73048b60e21b845260048401919091529092506001600160a01b03169081906369cc122c90602401600060405180830381600087803b158015610a3d57600080fd5b505af1158015610a51573d6000803e3d6000fd5b50506040516001600160401b03851681528892507f01c8a6742988c86e1e3cf3a0830aacd862b20c5ac4af6858c41e69c4942306fa91506020015b60405180910390a2505050505050565b60008281526006602090815260408083206001600160a01b03851684529091529020600101545b92915050565b610ad16117c1565b610adb60006117ee565b565b610ae56117c1565b60008211610b355760405162461bcd60e51b815260206004820152601960248201527f4475726174696f6e206d75737420626520706f736974697665000000000000006044820152606401610525565b6004805460009182610b4683611f43565b9091555090506000610b5b8462015180611f5c565b610b659042611f30565b90506040518061016001604052808381526020018781526020018681526020018281526020016000815260200160006002811115610ba557610ba5611b9e565b8152600060208083018290526040808401839052606084018890526080840183905260a09093018290528582526005815291902082518155908201516001820190610bf09082611fc4565b5060408201516002820190610c059082611fc4565b50606082015160038201556080820151600482015560a082015160058201805460ff19166001836002811115610c3d57610c3d611b9e565b021790555060c0820151600582018054610100600160a81b0319166101006001600160a01b03909316830217905560e08301516006830155820151600782015561012082015160088201805467ffffffffffffffff19166001600160401b039092169190911790556101409091015160099091015560405182907fa67a3ae202f19c155f33ec43781f888d5b6b6ddf7467ff4893647ece828a26b290610a8c90899085908890612083565b816004548110610d0a5760405162461bcd60e51b815260040161052590611eeb565b82600080828152600560208190526040909120015460ff166002811115610d3357610d33611b9e565b14610d745760405162461bcd60e51b8152602060048201526011602482015270526166666c65206e6f742061637469766560781b6044820152606401610525565b610d7c61183e565b60008311610dcc5760405162461bcd60e51b815260206004820152601c60248201527f4d75737420627579206174206c65617374206f6e65207469636b6574000000006044820152606401610525565b600084815260056020526040902060038101544210610e245760405162461bcd60e51b8152602060048201526014602482015273149859999b1948185b1c9958591e48195b99195960621b6044820152606401610525565b600781015415610ef7578060070154848260060154610e439190611f30565b1115610e915760405162461bcd60e51b815260206004820152601c60248201527f4e6f7420656e6f756768207469636b65747320617661696c61626c65000000006044820152606401610525565b8060070154848260060154610ea69190611f30565b03610ef75760058101805460ff1916600190811790915560405186917f30d620e139a09aa5966cb24772df5a5612220e1e5aa3b9b6230293551fae6fb691610eee91906120a8565b60405180910390a25b6000610f0b8567016345785d8a0000611f5c565b9050803414610f5c5760405162461bcd60e51b815260206004820152601a60248201527f496e636f7272656374205a45544120616d6f756e742073656e740000000000006044820152606401610525565b610f67863387611868565b80826004016000828254610f7b9190611f30565b90915550506006820154604080518781526020810192909252339188917fef266bb11bf4b58aa8562ab8c8746e3b84a521780a2c57ca09d87bae13f5eb09910160405180910390a35050610fce60018055565b50505050565b606060006004546001600160401b03811115610ff257610ff2611c62565b60405190808252806020026020018201604052801561102b57816020015b611018611a50565b8152602001906001900390816110105790505b50905060005b60045481101561123f5760056000828152602001908152602001600020604051806101600160405290816000820154815260200160018201805461107490611eb7565b80601f01602080910402602001604051908101604052809291908181526020018280546110a090611eb7565b80156110ed5780601f106110c2576101008083540402835291602001916110ed565b820191906000526020600020905b8154815290600101906020018083116110d057829003601f168201915b5050505050815260200160028201805461110690611eb7565b80601f016020809104026020016040519081016040528092919081815260200182805461113290611eb7565b801561117f5780601f106111545761010080835404028352916020019161117f565b820191906000526020600020905b81548152906001019060200180831161116257829003601f168201915b50505091835250506003820154602082015260048201546040820152600582015460609091019060ff1660028111156111ba576111ba611b9e565b60028111156111cb576111cb611b9e565b8152600582015461010090046001600160a01b03166020820152600682015460408201526007820154606082015260088201546001600160401b0316608082015260099091015460a090910152825183908390811061122c5761122c6120b6565b6020908102919091010152600101611031565b50919050565b61124d6117c1565b6001600160a01b0381166112955760405162461bcd60e51b815260206004820152600f60248201526e496e76616c6964206164647265737360881b6044820152606401610525565b600280546001600160a01b0319166001600160a01b0392909216919091179055565b8060045481106112d95760405162461bcd60e51b815260040161052590611eeb565b6112e16117c1565b6112e961183e565b60008281526005602052604090206002600582015460ff16600281111561131257611312611b9e565b146113565760405162461bcd60e51b8152602060048201526014602482015273149859999b19481b9bdd0818dbdb5c1b195d195960621b6044820152606401610525565b600581015461010090046001600160a01b03166113aa5760405162461bcd60e51b8152602060048201526012602482015271139bc81dda5b9b995c881cd95b1958dd195960721b6044820152606401610525565b60008160040154116113f65760405162461bcd60e51b8152602060048201526015602482015274141c9a5e9948185b1c9958591e4818db185a5b5959605a1b6044820152606401610525565b600060646005836004015461140b9190611f5c565b61141591906120e2565b9050600081836004015461142991906120f6565b6000600485018190559091506114476000546001600160a01b031690565b6001600160a01b03168360405160006040518083038185875af1925050503d8060008114611491576040519150601f19603f3d011682016040523d82523d6000602084013e611496565b606091505b50509050806114dd5760405162461bcd60e51b8152602060048201526013602482015272119959481d1c985b9cd9995c8819985a5b1959606a1b6044820152606401610525565b600584015460405160009161010090046001600160a01b03169084908381818185875af1925050503d8060008114611531576040519150601f19603f3d011682016040523d82523d6000602084013e611536565b606091505b505090508061157f5760405162461bcd60e51b8152602060048201526015602482015274141c9a5e99481d1c985b9cd9995c8819985a5b1959605a1b6044820152606401610525565b60058501546040518481526101009091046001600160a01b03169088907f4aa95f981a8337cb337de335b965507da0879c3b49f799d20058e913f5ad2c269060200160405180910390a350505050506115d760018055565b5050565b6115e36117c1565b6001600160a01b03811661160d57604051631e4fbdf760e01b815260006004820152602401610525565b611616816117ee565b50565b60008281526005602052604090206001600582015460ff16600281111561164257611642611b9e565b1461168f5760405162461bcd60e51b815260206004820152601c60248201527f526166666c65206e6f7420696e2066696e6973686564207374617465000000006044820152606401610525565b6002816006015410156116de5760405162461bcd60e51b81526020600482015260176024820152764e6f7420656e6f756768207061727469636970616e747360481b6044820152606401610525565b60008160060154836116f09190612109565b60008581526007602052604081209192509061170c908361193c565b6005840180546001600160a81b03191660ff196101006001600160a01b038516021617600290811790915560405191925086917f30d620e139a09aa5966cb24772df5a5612220e1e5aa3b9b6230293551fae6fb69161176a916120a8565b60405180910390a2806001600160a01b0316857ffee5b04775e1cd2311ed22cd00f5d2403aff38ff6f71d6d393f51854ed6bc98685600401546040516117b291815260200190565b60405180910390a35050505050565b6000546001600160a01b03163314610adb5760405163118cdaa760e01b8152336004820152602401610525565b600080546001600160a01b038381166001600160a01b0319831681178455604051919092169283917f8be0079c531659141344cd1fd0a4f28419497f9722a3daafe3b4186f6b6457e09190a35050565b60026001540361186157604051633ee5aeb560e01b815260040160405180910390fd5b6002600155565b6000838152600560209081526040808320600683528184206001600160a01b0387168552909252822060018101549192909190036118c55780546001600160a01b0319166001600160a01b038516178155600181018390556118df565b828160010160008282546118d99190611f30565b90915550505b600682015460005b8481101561191a576119116118fc8284611f30565b6000898152600760205260409020908861194f565b506001016118e7565b508383600601600082825461192f9190611f30565b9091555050505050505050565b6000611948838361196d565b9392505050565b600061196584846001600160a01b0385166119b4565b949350505050565b600081815260028301602052604081205480158015611993575061199184846119d1565b155b156119485760405163015ab34360e11b815260048101849052602401610525565b6000828152600284016020526040812082905561196584846119dd565b600061194883836119e9565b60006119488383611a01565b60008181526001830160205260408120541515611948565b6000818152600183016020526040812054611a4857508154600181810184556000848152602080822090930184905584548482528286019093526040902091909155610ac3565b506000610ac3565b604051806101600160405280600081526020016060815260200160608152602001600081526020016000815260200160006002811115611a9257611a92611b9e565b815260200160006001600160a01b03168152602001600081526020016000815260200160006001600160401b03168152602001600081525090565b80356001600160a01b0381168114611ae457600080fd5b919050565b60008060408385031215611afc57600080fd5b82359150611b0c60208401611acd565b90509250929050565b60008060408385031215611b2857600080fd5b611b3183611acd565b946020939093013593505050565b600060208284031215611b5157600080fd5b5035919050565b6000815180845260005b81811015611b7e57602081850181015186830182015201611b62565b506000602082860101526020601f19601f83011685010191505092915050565b634e487b7160e01b600052602160045260246000fd5b60038110611bd257634e487b7160e01b600052602160045260246000fd5b9052565b60006101608d8352806020840152611bf08184018e611b58565b90508281036040840152611c04818d611b58565b915050896060830152886080830152611c2060a0830189611bb4565b6001600160a01b039690961660c082015260e08101949094526101008401929092526001600160401b0316610120830152610140909101529695505050505050565b634e487b7160e01b600052604160045260246000fd5b600082601f830112611c8957600080fd5b81356001600160401b0380821115611ca357611ca3611c62565b604051601f8301601f19908116603f01168101908282118183101715611ccb57611ccb611c62565b81604052838152866020858801011115611ce457600080fd5b836020870160208301376000602085830101528094505050505092915050565b60008060008060808587031215611d1a57600080fd5b84356001600160401b0380821115611d3157600080fd5b611d3d88838901611c78565b95506020870135915080821115611d5357600080fd5b50611d6087828801611c78565b949794965050505060408301359260600135919050565b60008060408385031215611d8a57600080fd5b50508035926020909101359150565b600060208083018184528085518083526040925060408601915060408160051b87010184880160005b83811015611e8e57603f1989840301855281516101608151855288820151818a870152611df182870182611b58565b9150508782015185820389870152611e098282611b58565b9150506060808301518187015250608080830151818701525060a080830151611e3482880182611bb4565b505060c0828101516001600160a01b03169086015260e080830151908601526101008083015190860152610120808301516001600160401b0316908601526101409182015191909401529386019390860190600101611dc2565b509098975050505050505050565b600060208284031215611eae57600080fd5b61194882611acd565b600181811c90821680611ecb57607f821691505b60208210810361123f57634e487b7160e01b600052602260045260246000fd5b602080825260159082015274149859999b1948191bd95cc81b9bdd08195e1a5cdd605a1b604082015260600190565b634e487b7160e01b600052601160045260246000fd5b80820180821115610ac357610ac3611f1a565b600060018201611f5557611f55611f1a565b5060010190565b8082028115828204841417610ac357610ac3611f1a565b601f821115611fbf576000816000526020600020601f850160051c81016020861015611f9c5750805b601f850160051c820191505b81811015611fbb57828155600101611fa8565b5050505b505050565b81516001600160401b03811115611fdd57611fdd611c62565b611ff181611feb8454611eb7565b84611f73565b602080601f831160018114612026576000841561200e5750858301515b600019600386901b1c1916600185901b178555611fbb565b600085815260208120601f198616915b8281101561205557888601518255948401946001909101908401612036565b50858210156120735787850151600019600388901b60f8161c191681555b5050505050600190811b01905550565b6060815260006120966060830186611b58565b60208301949094525060400152919050565b60208101610ac38284611bb4565b634e487b7160e01b600052603260045260246000fd5b634e487b7160e01b600052601260045260246000fd5b6000826120f1576120f16120cc565b500490565b81810381811115610ac357610ac3611f1a565b600082612118576121186120cc565b50069056fea264697066735822122096025fc49a592a24810b98a9da91727ff0c31ebfe94c914c9596832e839a643c64736f6c63430008180033",
  "linkReferences": {},
  "deployedLinkReferences": {}
}